:1000000080314028FA3400347E1480310B1F0928D7
:100010000A283E282100901D0E280F2817282000AE
:10002000901D1328142817289231D52280312100E1
:10003000901E1B281C2826282000901E20282128DE
:10004000262868088A0067080A0080312100911D6F
:100050002A282B2833282000911D2F2830283328C8
:100060009231D12280318B1E362837283E280B1D35
:100070003A283B283E289631BF2680317E10090061
:1000800080314228923195228031EF002100803169
:1000900002208031ED00803103208031EE00E3301A
:1000A00084009230850022001200DE001200DF0082
:1000B0001200E0001200E1001200E2007030840043
:1000C000233085008030FE000030FF009331F123A3
:1000D000803153308400003085001C30FE00003039
:1000E000FF009331F1238031E2308400003085003D
:1000F0000B30FE000030FF009331F12380312030BF
:100100008400013085003E30FE000030FF00933156
:10011000F1238031A0308400013085004030FE00A2
:100120000030FF009331F12380317E1020008C31AC
:10013000402C210035088039BF003535C600B41F7A
:10014000A228A328A428461446080319A828A928E9
:10015000B928460A031DAD28AE28B6280030B500E0
:100160000030B4000030B3000030B200B417B50165
:10017000C1280030B5000030B4000030B3000030BA
:10018000B20031088039B6003608BF063135C700E5
:10019000B01FCB28CC28CD28471447080319D128F5
:1001A000D228E228470A031DD628D728DF280030A6
:1001B000B1000030B0000030AF000030AE00B0172A
:1001C000B101EA280030B1000030B0000030AF00CB
:1001D0000030AE00310830042F042E04031DF12836
:1001E000F2280B290030B5000030B4000030B30015
:1001F0000030B2008030B4047F30B5043F08B60050
:100200003608B5043508B1003408B0003308AF0033
:100210003208AE00422A4608031D0F291029192969
:100220000030B1000030B0000030AF000030AE0050
:10023000422A4608B600B7013708B9004708360217
:10024000B800031CB90338087F3EC0000030393DB8
:10025000C1003508BE003408BD003308BC003208B8
:10026000BB000030B5000030B4000030B3000030F7
:10027000B2000030C5000030C4000030C3000030C0
:10028000C200C70181294708031947294829622963
:100290000130BB35BC0DBD0DBE0D890B49290130A8
:1002A000B235B30DB40DB50D890B5029C51F5929B1
:1002B0005A295B2932140130C235C30DC40DC50D56
:1002C000890B5C2931083E02031D702930083D026C
:1002D000031D70292F083C02031D70292E083B02C4
:1002E000031C732974297D2945172E08BB022F088A
:1002F000BC3B3008BD3B3108BE3B0130B600360880
:10030000C7071A304702031C8629872943293E085C
:100310003D043C043B0403198E298F29A82942146B
:10032000A8290130B235B30DB40DB50D890B922952
:10033000C51F9B299C299D2932140130C235C30D4C
:10034000C40DC50D890B9E29FF30C007FF30C13D8C
:10035000B41FAB29AC299129C701C51FB029B12908
:10036000CD29FF304205B600FF304305B700FF300E
:100370004405B8007F304505B90039083804370412
:1003800036040319C429C529C829C701C70ACD29BC
:10039000321CCB29CC29CD29C52947080319D129DD
:1003A000D229FA290130B2070030B33D0030B43D04
:1003B0000030B53D351CDD29DE29FA293208B600AA
:1003C0003308B7003408B8003508B9000130BA0066
:1003D000B937B80CB70CB60CBA0BE8293908B50018
:1003E0003808B4003708B3003608B2000130C0073F
:1003F0000030C13D4108803AB60080303602031D0E
:10040000032AFF304002031C062A072A142AFF3061
:100410002100C0000030C1000030B5000030B40041
:100420000030B3000030B20021004108803AB6002D
:1004300080303602031D1E2A013040020318212A93
:10044000222A2E2A2100C001C1010030B50000304F
:10045000B4000030B3000030B200BF0121004008FA
:10046000C600461C342A352A372AB4173B2A7F3067
:10047000B6003608B4054636B5003F08B600360863
:10048000B50402290800200027088039B10027356B
:10049000B800A61F4C2A4D2A4E2A381438080319D2
:1004A000522A532A632A380A031D572A582A602AD7
:1004B0000030A7000030A6000030A5000030A400E6
:1004C000A617A7016B2A0030A7000030A600003055
:1004D000A5000030A40023088039A8002808B10630
:1004E0002335B900A21F752A762A772A39143908CC
:1004F00003197B2A7C2A8C2A390A031D802A812A27
:10050000892A0030A3000030A2000030A100003092
:10051000A000A217A301942A0030A3000030A2007B
:100520000030A1000030A000230822042104200490
:10053000031D9B2A9C2AB52A0030A7000030A60084
:100540000030A5000030A4008030A6047F30A7044E
:100550003108A8002808A7042708A3002608A2003D
:100560002508A1002408A000EC2B3808031DB92A97
:10057000BA2AC32A0030A3000030A2000030A10034
:100580000030A000EC2B3808A800A9012908AB0016
:1005900039082802AA00031CAB032A087F3EB200D8
:1005A00000302B3DB3002708B0002608AF00250817
:1005B000AE002408AD000030A7000030A6000030D7
:1005C000A5000030A4000030B7000030B6000030B5
:1005D000B5000030B400B9012B2B39080319F12AFA
:1005E000F22A0C2B0130AD35AE0DAF0DB00D890BDD
:1005F000F32A0130A435A50DA60DA70D890BFA2A03
:10060000B71F032B042B052B24140130B435B50D73
:10061000B60DB70D890B062B23083002031D1A2BCC
:1006200022082F02031D1A2B21082E02031D1A2B4C
:1006300020082D02031C1D2B1E2B272B37172008EB
:10064000AD022108AE3B2208AF3B2308B03B01308E
:10065000A8002808B9071A303902031C302B312BA7
:10066000ED2A30082F042E042D040319382B392BC2
:10067000522B3414522B0130A435A50DA60DA70D15
:10068000890B3C2BB71F452B462B472B24140130DD
:10069000B435B50DB60DB70D890B482BFF30B20739
:1006A000FF30B33DA61F552B562B3B2BB901B71F6F
:1006B0005A2B5B2B772BFF303405A800FF30350514
:1006C000A900FF303605AA007F303705AB002B08A4
:1006D0002A042904280403196E2B6F2B722BB901ED
:1006E000B90A772B241C752B762B772B6F2B3908A7
:1006F00003197B2B7C2BA42B0130A4070030A53DD4
:100700000030A63D0030A73D271C872B882BA42B4B
:100710002408A8002508A9002608AA002708AB007D
:100720000130AC00AB37AA0CA90CA80CAC0B922B77
:100730002B08A7002A08A6002908A5002808A4005D
:100740000130B2070030B33D3308803AA800803052
:100750002802031DAD2BFF303202031CB02BB12B3E
:10076000BE2BFF302000B2000030B3000030A700E5
:100770000030A6000030A5000030A400200033089F
:10078000803AA80080302802031DC82B01303202B5
:100790000318CB2BCC2BD82B2000B201B301003097
:1007A000A7000030A6000030A5000030A400B10171
:1007B00020003208B800381CDE2BDF2BE12BA617F7
:1007C000E52B7F30A8002808A6053836A700310899
:1007D000A8002808A704AC2A080082302100D9000C
:1007E000DD30890BF12BD90BF12B00328D31F32544
:1007F00083312100D900DA015908DB005A08DC00F6
:100800005B08883190208331003021005C021E306B
:1008100003195B02031C0D2C0E2C0F2CE22CFF3055
:1008200089310F21833121006E08A1006D08A000DD
:1008300095318A25833144302100A0000030A10089
:1008400095317125833106302100DA001330D9004B
:10085000AD30890B292CD90B292CDA0B292C00322D
:100860008D31F32583312100D900DA015908DD00EB
:100870005A08DE005D088831902083310330210062
:10088000DA008A30D9005530890B442CD90B442C1E
:10089000DA0B442C003214302100A0000030A100FB
:1008A00095317125833106302100DA001330D900EB
:1008B000AD30890B592CD90B592CDA0B592C00323D
:1008C0008D31F32583312100D900DA015908DF0089
:1008D0005A08E0005F0888319020833103302100FE
:1008E000DA008A30D9005530890B742CD90B742C5E
:1008F000DA0B742C00322A302100A0000030A10055
:10090000953171258331210060085E02031D8A2C18
:100910005F085D0203188D2C8E2C9B2C553089317D
:100920000F21833121006E08A1006D08A0009531D0
:100930008A258331A72CAA3089310F2183312100E8
:100940006E08A1006D08A00095318A258331023020
:100950002100DA00A030D9009230890BAD2CD90BE0
:10096000AD2CDA0BAD2C0000FF3089310F21833123
:1009700021006E08A1006D08A00095318A25833101
:1009800004302100DA008E30D9001230890BC62CD9
:10099000D90BC62CDA0BC62C0000963089310F21FA
:1009A000833121006E08A1006D08A00095318A25D1
:1009B00083310D302100D900FB30890BDD2CD90BA0
:1009C000DD2C003208002100B2002B0886008701D0
:1009D000403FAD00413FAE002D0884002E08850049
:1009E0001200253A031DF52CF62CBE2D2B0886008F
:1009F00087010130810741310318810A2200C001BB
:100A0000C10103100030031801302000E900FF305D
:100A10002200C200FF30C30021002B08860087019E
:100A2000403FB300413FB4003308840034088500E0
:100A30001200643A03191D2D1E2D282D3308840041
:100A4000340885001200693A031D272D282DB42D86
:100A50002C08860087010108840085010230810787
:100A6000003FB500013FB6003308013EAD00003045
:100A7000343DAE002B08860087012D08C03F2E08AC
:100A8000C13F2030B900B61B462D482D0130492DFD
:100A90000030B1000130B9023908203E8600013033
:100AA00087000A30A0000030A1003608A3003508F6
:100AB000A2008A31D722843121002108A800200811
:100AC000A70094314E24843121002708303E810054
:100AD0000A30A0000030A1003608A3003508A200AB
:100AE0008B31E023843121002108B6002008B500B5
:100AF0003508360403197D2D7E2D832D3908031DFD
:100B0000822D832D4A2D39080319872D882DAD2D6F
:100B1000310803198C2D8D2DAD2D0130B902390806
:100B2000203E8600013087002D308100AD2D390830
:100B3000203E8600013087000108AD00AE012D087F
:100B4000A0002E08A1003208A2008A31842284313C
:100B500001302100AD002D08B90720303906031DF2
:100B6000B22DB32D972DD62D21002B08860087019D
:100B70000130810741310318810AD62D2B088600E8
:100B80008701403FAD00413FAE002D0884002E0894
:100B900085000008AF00B0012F08A0003008A100B8
:100BA0003208A2008A3184228431B42D080020004A
:100BB000A5007B0886008701403FA000413FA100BF
:100BC00020088400210885001200253A031DE92D24
:100BD000EA2DB02E7B088600870101308107413164
:100BE0000318810A2200C001C1010310003003185C
:100BF00001302000E900FF302200C200FF30C300B6
:100C00007B0886008701403F2000A600413FA700E7
:100C100026088400270885001200643A0319112E63
:100C2000122E1C2E26088400270885001200693A1F
:100C3000031D1B2E1C2EA72E7C0886008701010891
:100C40008400850102308107003FA800013FA90010
:100C50002608013EA0000030273DA1007B08860049
:100C600087012008C03F2108C13F2030AC00A91BEC
:100C70003A2E3C2E01303D2E0030A4000130AC0253
:100C80002C08203E8600013087000A30F00000303A
:100C9000F1002908F3002808F2008A313122853159
:100CA0007108F8007008F70094312B24853177081B
:100CB000303E81000A30F0000030F10020002908A9
:100CC000F3002808F2008B31812385317108200060
:100CD000A9007008A800280829040319702E712E95
:100CE000762E2C08031D752E762E3E2E2C08031909
:100CF0007A2E7B2EA02E240803197F2E802EA02E64
:100D00000130AC022C08203E8600013087002D30D7
:100D10008100A02E2C08203E8600013087000108AB
:100D2000A000A1012008F0002108F1002508F20030
:100D30008931E021853101302000A0002008AC0776
:100D400020302C06031DA52EA62E8A2EC82E7B0829
:100D5000860087010130810741310318810AC82EBE
:100D60007B0886008701403FA000413FA10020088A
:100D70008400210885000008A200A3012208F000D9
:100D80002308F1002508F2008931E0218531A72EE2
:100D900008002100A80028080319CF2ED02EE42E29
:100DA000A31FD32ED42EE42E2009AA002109AB00C4
:100DB0002209AC002309AD00AA0A0319AB0A0319E2
:100DC000AC0A0319AD0AEC2E2308AD002208AC00D2
:100DD0002108AB002008AA002308220421042004D3
:100DE000031DF32EF42EFD2E0030A3000030A200D0
:100DF0000030A1000030A000732F9630A9000B2F07
:100E00000130A4002408A9070130AD36AC0CAB0CAE
:100E1000AA0C890B052FFE302D05031D102F112F55
:100E2000002F252F0130A4002408A9070130AA07AC
:100E30000030AB3D0030AC3D0030AD3D0130AD3653
:100E4000AC0CAB0CAA0C890B1F2FFF302D05031D1A
:100E50002A2F2B2F122F352F0130A9020130AA354E
:100E6000AB0DAC0DAD0D890B2F2FAC1B382F392FCF
:100E70003F2F0230290203183E2F3F2F2C2F291815
:100E8000422F432F4B2FFF30AA05FF30AB057F3099
:100E9000AC05FF30AD050310A90C2908A400A5017D
:100EA000A601A7011830A435A50DA60DA70D890B25
:100EB000532F2408AA042508AB042608AC042708ED
:100EC000AD0428080319652F662F6B2FA31F692F08
:100ED0006A2F6B2FAD172D08A3002C08A2002B083A
:100EE000A1002A08A0000800F60076080739F700DC
:100EF000D42F963088315120873121006E08F100BF
:100F00006D08F000943160248731F02F693088310A
:100F10005120873121006E08F1006D08F0009431F6
:100F200060248731F02F993088315120873121009A
:100F30006E08F1006D08F000943160248731F02FC5
:100F4000663088315120873121006E08F1006D082C
:100F5000F000943160248731F02FAA30883151207D
:100F6000873121006E08F1006D08F0009431602493
:100F70008731F02F553088315120873121006E089C
:100F8000F1006D08F000943160248731F02FFF30BC
:100F900088315120873121006E08F1006D08F00082
:100FA000943160248731F02F7708F400F50175083B
:100FB000003A0319DC2FC72F7408003A0319792F60
:100FC000013A0319862F033A0319932F013A0319A3
:100FD000A02F073A0319AD2F013A0319BA2FC72FD3
:100FE00008002100200821040319F72FF82FFF2FF4
:100FF00021082000E800210020082000E700080068
:1010000020009E019D019F01FF309B009A019130BD
:101010002100A0001230A1009331732388312000F9
:101020009010F0309C0008002000C700933161232D
:101030008831F601F60A01309731292788310230CC
:1010400020004702031C252826284928FB30470298
:1010500003182B282C2849285030B3009830B400AE
:101060004708C500C6014508B5004608B6004E3021
:101070009631642688314E30F6000130F700963103
:101080002926883120004708F0009231B5228831A6
:1010900050284330F6009830F700963129268831E1
:1010A0000800F100F30108307302031C5828592886
:1010B0005A2883280130F000730A5F28F035890B25
:1010C0005E287008F2007108720503196828692803
:1010D0006C2822000D166E2822000D12C830003236
:1010E000890B6F2822000D17C8300032890B752834
:1010F00022000D13C8300032890B7B280130F0002C
:101100007008F307532822008D16C8300032890B6F
:10111000862822008D12C8300032890B8C280800E6
:101120002100D50093318E2388312100A601A60A23
:10113000013097314F278831023021005502031CBE
:10114000A228A328C728FB3055020318A828A928DD
:10115000C7285030C1009830C2005508D300D401D0
:101160005308C3005408C4004E309631822688319B
:101170004E302100A6000130A7009631A02688310C
:1011800021005508A000933185238831CE284330B3
:10119000A6009830A7009631A026883108000430B8
:1011A000F1009231C5228831003A0319D828D92894
:1011B0000A2920005C085D040319DF28E028F728CD
:1011C0009231A5228831F0000730533E8600870116
:1011D000403F8400413F85007008800001302000BE
:1011E000DA070030DB3D0130DC020030DD3B5C081B
:1011F0005D040319FC28FD2801299231C1228831A0
:101200000D299231AB2288319231C92288310730C1
:10121000F1000D299231A8228831710808002100BF
:10122000A100A30108302302031C1729182919293A
:1012300043290130A000230A1E29A035890B1D294E
:101240002008A200210822050319272928292B2973
:1012500022000D162D2922000D12C8300032890BF4
:101260002E2922000D17C8300032890B34292200A4
:101270000D13C8300032890B3A2901302100A0003B
:101280002008A307122922008D16C8300032890BCE
:10129000462922008D12C8300032890B4C290800E3
:1012A00092319F22893193312C238931003A0319DD
:1012B0005A295B296929933100238931003A03199E
:1012C00062296329692905302000E0000130DF0030
:1012D0007E299231DE228931003A03197029712961
:1012E0007E29933100238931003A0319782979291D
:1012F0007E2905302000E0000230DF002000600879
:10130000F400F501F435F50D313074078400183020
:10131000753D80388500013F8A00003F0A00893111
:101320002000E00008002000CC004C089631462642
:101330008931003A031D9D299E299F29DF298D317E
:10134000112589318831142089312100EA012000DA
:101350004C089731A327893120004C089531D625B8
:10136000893120004C0887317427893120004C0ACC
:10137000031DBB29BC29D6292100EA01EA0AFA305B
:10138000ED000030EE002A30F0000030F100943122
:1013900073248931963088315120893121006E08BB
:1013A000F1006D08F0009431602489310D30200087
:1013B000CB00FB30890BDA29CB0BDA29003208008D
:1013C00072080319E429E529EA297208031DE929AD
:1013D000EA29EF29700892318E228931302A720869
:1013E000093E86008701160001040319F829F9292E
:1013F000172A7208093E86008701403FF300413FEB
:10140000F4007208023E86008701403FF500413F2C
:10141000F6007608803AF7007408803A7702031DD8
:10142000132A730875020318162A172A302A72081D
:10143000860087017208023E8400850100080107CA
:10144000F30073088600013087007008810072087D
:10145000023E860087010130810741310318810A6D
:101460000800F601F31F352A362A3D2AF209F3094E
:10147000F20A0319F30AF601F60AF11F402A412A7B
:10148000462AF009F109F00A0319F10A70087104FB
:1014900003194B2A4C2A752AF501F50A582A0130FE
:1014A000F035F10D890B502A0130F4007408F5076E
:1014B000F11F5B2A5C2A4F2A71087302031D622AFE
:1014C00070087202031C652A662A6A2A7008F202F2
:1014D0007108F33B0130F136F00C890B6B2A0130B7
:1014E000F502031D742A752A5C2A76080319792AE5
:1014F0007A2A7F2AF209F309F20A0319F30A730818
:10150000F1007208F0000800210022080319892A5E
:101510008A2A8F2A2208031D8E2A8F2A942A2008BD
:10152000923194228A31D62A2208093E8600870108
:101530001600010403199D2A9E2ABC2A2208093E8E
:1015400086008701403FA300413FA4002208023EDD
:1015500086008701403FA500413FA6002608803A4B
:10156000A7002408803A2702031DB82A2308250271
:101570000318BB2ABC2AD62A21002208860087012C
:101580002208023E8400850100080107A300230809
:10159000860001308700200881002208023E860074
:1015A00087010130810741310318810A08002100B9
:1015B000A601A31FDC2ADD2AE42AA209A309A20AA4
:1015C0000319A30AA601A60AA11FE72AE82AED2A01
:1015D000A009A109A00A0319A10A200821040319DE
:1015E000F22AF32A1C2BA501A50AFF2A0130A035F7
:1015F000A10D890BF72A0130A4002408A507A11F1B
:10160000022B032BF62A21082302031D092B200895
:101610002202031C0C2B0D2B112B2008A2022108E7
:10162000A33B0130A136A00C890B122B0130A5027F
:10163000031D1B2B1C2B032B26080319202B212BEE
:10164000262BA209A309A20A0319A30A2308A100B1
:101650002208A000080022008C018D0118308E00A5
:10166000193021008C0080308D009B308E001530A9
:1016700023008C008D0101308E003A3024008C0054
:10168000F0308D00DF308E002100951325008C0195
:101690008D018E01363026008C00F0308D00FF3039
:1016A0008E00183027008C00F0308D0007308E003F
:1016B00017303C00A40012303D00A60014303C005E
:1016C000A00010303D00A40013303C00A1001130F8
:1016D0003D00A30002303C0095000D303D0092001B
:1016E00015303C0094000C303D00A500270091010E
:1016F0009201930194019501960197019801990136
:101700000800F601F11F852B862B8D2BF009F109BE
:10171000F00A0319F10AF601F60AF31F902B912B38
:101720009A2BF209F309F20A0319F30A0130F400C3
:101730007408F606F701F801700871040319A12B6B
:10174000A22BD12BF501F50AAE2B0130F035F10DAE
:10175000890BA62B0130F4007408F507F11FB12B9B
:10176000B22BA52B0130F735F80D890BB32B71087F
:101770007302031DBD2B70087202031CC02BC12B0A
:10178000C62B7008F2027108F33B77140130F13672
:10179000F00C890BC72B0130F502031DD02BD12B88
:1017A000B22B76080319D52BD62BDB2BF709F809BA
:1017B000F70A0319F80A7808F1007708F000080022
:1017C0002100A601A11FE52BE62BED2BA009A10905
:1017D000A00A0319A10AA601A60AA31FF02BF12B48
:1017E000FA2BA209A309A20A0319A30A0130A40033
:1017F0002408A606A701A801200821040319012C2A
:10180000022C312CA501A50A0E2C0130A035A10D0A
:10181000890B062C0130A4002408A507A11F112C58
:10182000122C052C0130A735A80D890B132C21088B
:101830002302031D1D2C20082202031C202C212C16
:10184000262C2008A2022108A33B27140130A13630
:10185000A00C890B272C0130A502031D302C312C44
:10186000122C26080319352C362C3B2CA709A80965
:10187000A70A0319A80A2808A1002708A000080041
:10188000973104278C312100901191118B170B1780
:101890009331A1238C314E308E3167268C319331B8
:1018A00051238C3193318E238C312100A601A60A5D
:1018B000013097314F278C310C302100A600983031
:1018C000A7009631A0268C318B1222000D128D12AA
:1018D0000D13F4302100A0000130A10095318A25BC
:1018E0008C312A302100A0000030A10095317125F3
:1018F0008C31FF3089310F218C3121006E08A1001D
:101900006D08A00095318A258C3121006A080319E1
:101910008A2C8B2C8F2C8331ED238C31852C8D31AF
:10192000F3258C31883190208C31C3302100E100C7
:10193000CD30890B992CE10B992C852C80314028D6
:10194000031020003C0D3D0DC3004308031DA92CCE
:10195000AA2CB32C0030BD000030BC000030BB000E
:101960000030BA00102D3A08BE003B08BF003C080A
:10197000C0003D08C1001F30C136C00CBF0CBE0CFA
:10198000890BBC2C3E08C200BC17FF30BA05FF30E3
:10199000BB05FF30BC050030BD059630C302C31F38
:1019A000D22CD32CEB2C4308803A973E0318D92C29
:1019B000DA2CDB2CAA2C0130BD36BC0CBB0CBA0CCB
:1019C000890BDC2C0130BE003E08C307031DE92C47
:1019D000EA2CDB2C002D20304302031CF02CF12CD0
:1019E000FB2CAA2C0130BA35BB0DBC0DBD0D890BEB
:1019F000F32C0130C3024308031DFF2C002DF22CF1
:101A000042080319042D052D102DBA09BB09BC0984
:101A1000BD09BA0A0319BB0A0319BC0A0319BD0A96
:101A2000080020009701960122000E150330890B53
:101A3000172D000022000E1120008E1C202D212DBC
:101A40001C2D923196228D3120008E18282D292DA3
:101A5000242D923199228D3120001608C400C50131
:101A60001708C600C7014608C700C6014408460754
:101A7000F0004508473DF100F201F11BF203720846
:101A8000F30001308F3156278D3173082000A700F5
:101A90007208A6007108A5007008A4004230A300D7
:101AA0006B30A2004730A100AE30A000823143224B
:101AB0008D3120002308BD002208BC002108BB0096
:101AC0002008BA008C31A0248D3120003B08CA00C8
:101AD0003A08C90000304A02023003194902031CC7
:101AE000722D732D7C2D00304A02FB300319490200
:101AF000031C7B2D7C2D802DBC30C9000230CA0018
:101B000049080800031021004A0D4B0DD10051086F
:101B1000031D8B2D8C2D952D0030CB000030CA007D
:101B20000030C9000030C800F22D4808CC00490838
:101B3000CD004A08CE004B08CF001F30CF36CE0C68
:101B4000CD0CCC0C890B9E2D4C08D000CA17FF3051
:101B5000C805FF30C905FF30CA050030CB059630F7
:101B6000D102D11FB42DB52DCD2D5108803A973E0D
:101B70000318BB2DBC2DBD2D8C2D0130CB36CA0CCE
:101B8000C90CC80C890BBE2D0130CC004C08D10704
:101B9000031DCB2DCC2DBD2DE22D20305102031C79
:101BA000D22DD32DDD2D8C2D0130C835C90DCA0D98
:101BB000CB0D890BD52D0130D1025108031DE12D2C
:101BC000E22DD42D50080319E62DE72DF22DC8097A
:101BD000C909CA09CB09C80A0319C90A0319CA0ADB
:101BE0000319CB0A080020009701960122000E1568
:101BF0000330890BF92D000022000E1120008E1CED
:101C0000022E032EFE2D933133238D3120008E18AA
:101C10000A2E0B2E062E93313A238D312000160802
:101C20002100D200D301200017082100D400D501E3
:101C30005408D500D40152085407A0005308553D5C
:101C4000A100A201A11BA2032208A300013086313A
:101C5000C9268D3121002308B5002208B4002108CF
:101C6000B3002008B2004230B1006B30B000473002
:101C7000AF00AE30AE00803199208D3121003108A7
:101C8000CB003008CA002F08C9002E08C8008D31CB
:101C900082258D3121004908D8004808D70000303E
:101CA0005802023003195702031C572E582E612E7A
:101CB00000305802FB3003195702031C602E612EBE
:101CC000652EBC30D7000230D8005708080021002C
:101CD000A70027082000EB0000309431EC248E315F
:101CE00027302100A600F530890B742EA60B742E28
:101CF0000330953159258E3107302100A6007D3003
:101D0000890B802EA60B802E0330953159258E31FC
:101D100007302100A6007D30890B8C2EA60B8C2E5F
:101D20000330953159258E3107302100A6007D30D2
:101D3000890B982EA60B982E0230953159258E319D
:101D400007302100A6007D30890BA42EA60BA42EFF
:101D50002830953159258E3141302100A600EE30D2
:101D6000890BB02EA60BB02E00000C3095315925F2
:101D70008E3141302100A600EE30890BBD2EA60B1E
:101D8000BD2E00000130953159258E3141302100A2
:101D9000A600EE30890BCA2EA60BCA2E0000063014
:101DA000953159258E3141302100A600EE30890B46
:101DB000D72EA60BD72E00000800200090126E0828
:101DC000CD00CE01CD35CE0D7030CF002330D00008
:101DD0004D084F0786004E08503D87000030C03F39
:101DE000C13F23009D1CF52EF62E122F20006E08F9
:101DF000CD00CE01CD35CE0D7030CF002330D000D8
:101E00004D084F0786004E08503D870001156108B8
:101E1000620403190C2F0D2F122F62088A0061082B
:101E20000A008F3123001D1D162F172F332F20007E
:101E30006E08CD00CE01CD35CE0D7030CF002330F1
:101E4000D0004D084F0786004E08503D8700811492
:101E50006308640403192D2F2E2F332F64088A0082
:101E600063080A008F31230019082000D1006E0892
:101E7000013E3F39D20052086D06031D402F412F0D
:101E8000422F502F6E08A03E860001308700510877
:101E900081005208EE000130CD004D082100EB0713
:101EA00020005108893193218E310800F80078080C
:101EB00003195B2F5C2F702FF31F5F2F602F702F84
:101EC0007009FA007109FB007209FC007309FD003A
:101ED000FA0A0319FB0A0319FC0A0319FD0A782FF1
:101EE0007308FD007208FC007108FB007008FA001E
:101EF0007308720471047004031D7F2F802F892FD3
:101F00000030F3000030F2000030F1000030F0004B
:101F1000FF2F9630F900972F0130F4007408F9076D
:101F20000130FD36FC0CFB0CFA0C890B912FFE30B6
:101F30007D05031D9C2F9D2F8C2FB12F0130F400A8
:101F40007408F9070130FA070030FB3D0030FC3D12
:101F50000030FD3D0130FD36FC0CFB0CFA0C890B0A
:101F6000AB2FFF307D05031DB62FB72F9E2FC12F3E
:101F70000130F9020130FA35FB0DFC0DFD0D890B26
:101F8000BB2FFC1BC42FC52FCB2F023079020318A7
:101F9000CA2FCB2FB82F7918CE2FCF2FD72FFF30A6
:101FA000FA05FF30FB057F30FC05FF30FD0503100F
:101FB000F90C7908F400F501F601F7011830F43551
:101FC000F50DF60DF70D890BDF2F7408FA0475086F
:101FD000FB047608FC047708FD0478080319F12F48
:101FE000F22FF72FF31FF52FF62FF72FFD177D0890
:101FF000F3007C08F2007B08F1007A08F00008008A
:10200000763417340034003400340034853413340B
:102010000034003400340034003400340034003420
:102020000034003400340034003400340034003410
:102030000034003400340034003400340034003400
:102040000034003400340034F134073400340034F8
:10205000FD3413340C3414340034003400340034B0
:10251A000800080008000800080008000800080071
:10252A0008342000181408002000181008002000A1
:10253A0091110800200090110800240016150800C7
:10254A00240011080800240096150800240096109B
:10255A00080024009614080023001D121D16080006
:10256A00700823009A0008002400951295160800A6
:10257A002400951315130800240096121616080055
:10258A0024001408013908002400961616160800BB
:10259A002000D301083008009631E1269231080064
:1025AA008931502192310800F0007008240091000E
:1025BA0008002400140E890C013908006A347C349E
:1025CA00EE34E034B0349331CD2392312400161422
:1025DA0008009331CD239231240016150800933157
:1025EA0049239231F0007008080093312523923173
:1025FA00F000700808002400160E890C890C0139B5
:10260A0008009331D923933124001614080093311A
:10261A00D923933124001615080021002108E70068
:10262A002008E600080021002108E5002008E4004F
:10263A000800200054359231D92293310330080022
:10264A009231B92293312000D301003008000310DF
:10265A002400941E03140030093D08007E1C372B09
:10266A009231962A2000181408007E1C3E2B9231C3
:10267A00992A20001810080003142000540D9231E2
:10268A00D9229331043008009231A2229331943135
:10269A00D72493310030080008302000EF000030C2
:1026AA009431EC24933108006A3021009900220009
:1026BA00960121009801080001309431C224933117
:1026CA000D30890B662B000008002100210822002A
:1026DA00C900210020082200C800080021002108A2
:1026EA002200CD00210020082200CC000800210091
:1026FA0021082200C700210020082200C600080085
:10270A007E1C892B9231B52A2100200823009A00C9
:10271A00080001309531592593310D30890B932BDF
:10272A00000008008F302500930001309200FF302E
:10273A009100FC309E05080038302400950096016F
:10274A0094010930920021000E168E15080090306F
:10275A0021009E009B019C019F0101309D002000E9
:10276A00101308008F3025009A009901183098003C
:10277A001E08F33904389E0008008B102100151733
:10278A000030A0000030A1009331122393310800D9
:10279A0024001419D12BD22BCD2B16081F39031D57
:1027AA00D72BD82BCD2B080024001419DD2BDE2BB8
:1027BA00D92B16081F39031DE32BE42BD92B08004C
:1027CA002100200821040319EB2BEC2BF02B210804
:1027DA00E9002008E80008006400800101310130A6
:1027EA00FE020030FF3B7F087E04031DF22B0034FB
:1027FA002100200821040319032C042C0B2C210886
:10280A002000E400210020082000E3000800210045
:10281A00200821040319122C132C1A2C2108200039
:10282A00E200210020082000E1000800F0009331B6
:10283A00CD2394317008240091002000901D262C8D
:10284A00272C222C9011240016080800F81B2E2C85
:10285A002F2C302C3B2C7709F9007809FA00F90A59
:10286A000319FA0A7908F7007A08F8000800210023
:10287A00A0009331D923943121002008240091002B
:10288A002000901D492C4A2C452C90112400160832
:10289A0008002100A81B522C532C542C5F2C27090A
:1028AA00A9002809AA00A90A0319AA0A2908A7003F
:1028BA002A08A8000800FF30F0050330F1052500BA
:1028CA001A1E682C692C6E2C0630F035F10D890B16
:1028DA006A2C71089900700898000800FF30F0050A
:1028EA000330F1052500131E7B2C7C2C812C06302D
:1028FA00F035F10D890B7D2C71089200700891005A
:10290A000800F1009231E822943120006B089431DA
:10291A001B249431710820006F0494311B249431D4
:10292A009231EE229431080080302400940008305D
:10293A00950096019701093092008F302100A0007E
:10294A001230A1009331E523943124009516080032
:10295A00F30020006C08F2007208F30473080438CC
:10296A009431862494317308FB3994318624943146
:10297A001030890BBE2C00320800F5002000EC0153
:10298A007508F0399431AD2494317508F400033098
:10299A00F435FF3E031DCD2C7435F0399431AD2446
:1029AA00943108002000D3010030D500FF30D40054
:1029BA00D601D701DA01DB01E00192319F2294317D
:1029CA0092319C2294319231BD2294310800210027
:1029DA00A10093310623943120006B0894313C24E2
:1029EA0094312100210820006F0494313C24943151
:1029FA0093310C239431080028009701960198011D
:102A0A009C309400930193302100A0001230A10061
:102A1A0093317C23953120009110F03028009500E5
:102A2A00080021001508C039173895003D302000EC
:102A3A0095003D302100EC009030A0001230A1003A
:102A4A009331182395310B118B160800F5002000DD
:102A5A00EC01EC0A7508F0399431AD24953175080A
:102A6A00F4000330F435FF3E031D372D7435F03979
:102A7A009431AD24953108002100A30020006C0890
:102A8A002100A2002208A304230804389431EC246C
:102A9A00953121002308FB399431EC24953110300B
:102AAA00890B552D003208002100A5002000EC01F9
:102ABA0021002508F0399531412595312100250855
:102ACA00A4000330A435FF3E031D672D2435F039D9
:102ADA009531412595310800FF302100A0050330CA
:102AEA00A1052500131E7A2D7B2D812D063021008C
:102AFA00A035A10D890B7D2D21002108250092000A
:102B0A0021002008250091000800FF302100A005BF
:102B1A000330A10525001A1E932D942D9A2D0630F7
:102B2A002100A035A10D890B962D21002108250031
:102B3A009900210020082500980008002100A5001E
:102B4A002000EC01EC0A21002508F03995314125D5
:102B5A00953121002508A4000330A435FF3E031D4A
:102B6A00B22D2435F03995314125953108002000E0
:102B7A009901FF309700FF30960017082100E30003
:102B8A00200016082100E2009230A0001230A100B5
:102B9A0093316A2395312000101090130130980068
:102BAA000800F2007208F0000330F036890BDA2DC3
:102BBA007008F3000730F0007008F3057308F0009E
:102BCA00F1010730F035F10D890BE72D700821006E
:102BDA00ED007108EE0008002000B0002E08B200D7
:102BEA002D08B100002E3130FB002F08FC00300800
:102BFA008531D725953120003108840032088500B7
:102C0A001200031D092E0A2EF82DAD01AE0108008F
:102C1A002100BE003B08C0003A08BF001C2EBF308E
:102C2A00AB003C08AC003E088431E3249631210015
:102C3A003F088400400885001200031D252E262E19
:102C4A00142EBA01BB010800F901FA013A2E7608DE
:102C5A007907840077087A3D8500000895312B258D
:102C6A0096310130F9070030FA3D76087907840079
:102C7A0077087A3D85001200031D442E452E2C2E1E
:102C8A000800F100053020006A06031D4D2E4E2E65
:102C9A00512EEA010130632E6A085E3E8600013039
:102CAA00870001087106031D5B2E5C2E612E013020
:102CBA00F0007008EA07622EEA01003008002000DE
:102CCA00B9003530B8003908BA00BC01BD01C301EA
:102CDA00C4013408AE003308AD003830AF003A30D2
:102CEA009531F125963120003C083907B70037089D
:102CFA00860001308700810108002100C700C33027
:102D0A00C6004708C800CA01CB01D101D201420856
:102D1A00BB004108BA00C630BC00C83096310D2647
:102D2A00963121004A084707C50045088600013048
:102D3A008700810108002100A901AA01B32E2608F3
:102D4A002907840027082A3D850000089531A32514
:102D5A00963101302100A9070030AA3D260829072B
:102D6A00840027082A3D85001200031DBD2EBE2EB1
:102D7A00A42E08000B1121006C08200095000130D8
:102D8A00E5070030E63D003066020A3003196502A5
:102D9A00031CD02ED12EE02E2100640865040319ED
:102DAA00D72ED82EDD2E65088A0064080A009631CF
:102DBA002000E501E601080006302000E0000330AB
:102DCA00DF0092319C22963120006008F400F50160
:102DDA00F435F50D3130740784001830753D8038AC
:102DEA008500013F8A00003F0A0096312000E0007A
:102DFA00210069088A0068080A009731080093319F
:102E0A00592397318B312B2397319331AC23973147
:102E1A0097317627973194319924973193319723B3
:102E2A0097319331B72397319531162597319531DB
:102E3A00BC2597318831002097319531012597318A
:102E4A009331C22397310800F700432F7608BF3E1B
:102E5A009431C22497314E2F7608933E9431C2247E
:102E6A0097314E2F7608D33E9431C22497314E2F94
:102E7A0076087F3E9431C22497314E2F7708023A62
:102E8A0003192B2F013A0319312F073A0319372F48
:102E9A003D2F08002100A7006A2F2608BF3E953162
:102EAA0059259731752F2608933E95315925973123
:102EBA00752F2608D33E953159259731752F260847
:102ECA007F3E953159259731752F2708023A031904
:102EDA00522F013A0319582F073A03195E2F642F0C
:102EEA00080021009012DD30A0000E30A1008731C9
:102EFA00F1279731483023009F0090309D002630FB
:102F0A009E0067309B009C018D302100A00012308A
:102F1A00A1009331FD239731B1302100A000123076
:102F2A00A10094310C2497312200C401C50120006C
:102F3A00EE01ED012100EB0190160800F300730881
:102F4A00F2000630F236890BA72F7208F400C52F5B
:102F5A004430F0000030F100943173249731D02FBF
:102F6A002A30F0000030F100943173249731D02FC9
:102F7A001430F0000030F100943173249731D02FCF
:102F8A007408003A0319AD2F013A0319B52F033A11
:102F9A000319BD2FD02F080020005808590403191F
:102FAA00D72FD82FEE2F0130D8020030D93B57083F
:102FBA00F2005608F100D60A0319D70A71088600EA
:102FCA007208870001089231D92297310330F30041
:102FDA00FE2F5E080319F22FF32FFA2FDE0192312A
:102FEA00AE229731F301F30AFE2F93314923973129
:102FFA00F300730808000034083400340034003445
:10300A0000340034003473341334003400344D3443
:10301A006134733474346534723420344334613423
:10302A006D34703420343234303432343434003431
:10303A009934143400340034003400340034003439
:10304A0000340034003400340034003400340034D6
:10305A00E534133400340034CD341234413413349B
:10306A001E341334D1341734CF340834F4341234C0
:10307A00FA34123449341334253413344F34753442
:10308A00743420346F3466342034523461346E34EC
:10309A0067346534003444346934733474342E34F8
:1030AA003A34203425346434203463346D340034A3
:1030BA000134153400340034003400340034003450
:1030CA007C34133400340034BC34153433341334B0
:1030DA003A341334003400346A341334003400347C
:1030EA00163415340034003400340034003400340B
:0830FA001834133400340034D3
:020000040001F9
:06000E007C3FFF3E9F3F16
:00000001FF
