:10000000803141285E3401347E1480310B1F092871
:100010000A283F282100901D0E280F2817282000AD
:10002000901D1328142817289231B1228031210005
:10003000901E1B281C2827282000901E20282128DD
:10004000272822005B088A005A080A008031210014
:10005000911D2B282C2834282000911D3028312870
:1000600034289231AD2280318B1E372838283F2822
:100070000B1D3B283C283F289631BE2680317E1040
:10008000090080314328803102208031EE00803128
:1000900003208031EF00013084009330850022007E
:1000A0001200E5001200E6001200E7001200E8006E
:1000B0001200E9001200EA001200EB007030840028
:1000C000233085008030FE000030FF009331BE23D6
:1000D000803160308400003085000E30FE0000303A
:1000E000FF009331BE2380312100EF0120308400D6
:1000F000013085004530FE000030FF009331BE2303
:100100008031A0308400013085004030FE00003096
:10011000FF009331BE2380317E1020008C31392CBA
:10012000210035088039BF003535C600B41F992835
:100130009A289B284614460803199F28A028B0280F
:10014000460A031DA428A528AD280030B5000030BC
:10015000B4000030B3000030B200B417B501B828C5
:100160000030B5000030B4000030B3000030B20001
:1001700031088039B6003608BF063135C700B01FD8
:10018000C228C328C428471447080319C828C92807
:10019000D928470A031DCD28CE28D6280030B10023
:1001A0000030B0000030AF000030AE00B017B10139
:1001B000E1280030B1000030B0000030AF00003066
:1001C000AE00310830042F042E04031DE828E9286E
:1001D00002290030B5000030B4000030B300003018
:1001E000B2008030B4047F30B5043F08B600360852
:1001F000B5043508B1003408B0003308AF00320848
:10020000AE00392A4608031D0629072910290030A7
:10021000B1000030B0000030AF000030AE00392A2D
:100220004608B600B7013708B90047083602B800DB
:10023000031CB90338087F3EC0000030393DC100BF
:100240003508BE003408BD003308BC003208BB00CE
:100250000030B5000030B4000030B3000030B20010
:100260000030C5000030C4000030C3000030C200C0
:10027000C7017829470803193E293F295929013028
:10028000BB35BC0DBD0DBE0D890B40290130B2350B
:10029000B30DB40DB50D890B4729C51F5029512940
:1002A000522932140130C235C30DC40DC50D890B5E
:1002B000532931083E02031D672930083D02031D02
:1002C00067292F083C02031D67292E083B02031CE7
:1002D0006A296B29742945172E08BB022F08BC3BDD
:1002E0003008BD3B3108BE3B0130B6003608C707B9
:1002F0001A304702031C7D297E293A293E083D0415
:100300003C043B040319852986299F2942149F290F
:100310000130B235B30DB40DB50D890B8929C51F58
:1003200092299329942932140130C235C30DC40D8A
:10033000C50D890B9529FF30C007FF30C13DB41FA3
:10034000A229A3298829C701C51FA729A829C4292B
:10035000FF304205B600FF304305B700FF304405CB
:10036000B8007F304505B900390838043704360431
:100370000319BB29BC29BF29C701C70AC429321CDC
:10038000C229C329C429BC2947080319C829C92976
:10039000F1290130B2070030B33D0030B43D0030E8
:1003A000B53D351CD429D529F1293208B6003308CA
:1003B000B7003408B8003508B9000130BA00B937C1
:1003C000B80CB70CB60CBA0BDF293908B5003808E1
:1003D000B4003708B3003608B2000130C00700305F
:1003E000C13D4108803AB60080303602031DFA292B
:1003F000FF304002031CFD29FE290B2AFF3021009B
:10040000C0000030C1000030B5000030B400003042
:10041000B3000030B20021004108803AB6008030BD
:100420003602031D152A013040020318182A192A22
:10043000252A2100C001C1010030B5000030B40000
:100440000030B3000030B200BF0121004008C600F8
:10045000461C2B2A2C2A2E2AB417322A7F30B600AB
:100460003608B4054636B5003F08B6003608B50470
:10047000F9280800200027088039B1002735B80086
:10048000A61F432A442A452A381438080319492A42
:100490004A2A5A2A380A031D4E2A4F2A572A003060
:1004A000A7000030A6000030A5000030A400A61769
:1004B000A701622A0030A7000030A6000030A50086
:1004C0000030A40023088039A8002808B10623358D
:1004D000B900A21F6C2A6D2A6E2A39143908031933
:1004E000722A732A832A390A031D772A782A802AD6
:1004F0000030A3000030A2000030A1000030A000B6
:10050000A217A3018B2A0030A3000030A200003004
:10051000A1000030A0002308220421042004031DB0
:10052000922A932AAC2A0030A7000030A60000309F
:10053000A5000030A4008030A6047F30A704310855
:10054000A8002808A7042708A3002608A200250859
:10055000A1002408A000E32B3808031DB02AB12A0B
:10056000BA2A0030A3000030A2000030A100003001
:10057000A000E32B3808A800A9012908AB0039081E
:100580002802AA00031CAB032A087F3EB2000030F9
:100590002B3DB3002708B0002608AF002508AE00A9
:1005A0002408AD000030A7000030A6000030A500F0
:1005B0000030A4000030B7000030B6000030B500B5
:1005C0000030B400B901222B39080319E82AE92ABE
:1005D000032B0130AD35AE0DAF0DB00D890BEA2AFE
:1005E0000130A435A50DA60DA70D890BF12AB71F63
:1005F000FA2AFB2AFC2A24140130B435B50DB60DB5
:10060000B70D890BFD2A23083002031D112B220888
:100610002F02031D112B21082E02031D112B200870
:100620002D02031C142B152B1E2B37172008AD028F
:100630002108AE3B2208AF3B2308B03B0130A800A5
:100640002808B9071A303902031C272B282BE42A63
:1006500030082F042E042D0403192F2B302B492B87
:100660003414492B0130A435A50DA60DA70D890B17
:10067000332BB71F3C2B3D2B3E2B24140130B435BC
:10068000B50DB60DB70D890B3F2BFF30B207FF300C
:10069000B33DA61F4C2B4D2B322BB901B71F512B4D
:1006A000522B6E2BFF303405A800FF303505A90012
:1006B000FF303605AA007F303705AB002B082A042F
:1006C000290428040319652B662B692BB901B90A83
:1006D0006E2B241C6C2B6D2B6E2B662B390803198B
:1006E000722B732B9B2B0130A4070030A53D0030EB
:1006F000A63D0030A73D271C7E2B7F2B9B2B24087B
:10070000A8002508A9002608AA002708AB00013088
:10071000AC00AB37AA0CA90CA80CAC0B892B2B088E
:10072000A7002A08A6002908A5002808A40001306F
:10073000B2070030B33D3308803AA8008030280269
:10074000031DA42BFF303202031CA72BA82BB52BB3
:10075000FF302000B2000030B3000030A7000030AE
:10076000A6000030A5000030A40020003308803A25
:10077000A80080302802031DBF2B0130320203186D
:10078000C22BC32BCF2B2000B201B3010030A70036
:100790000030A6000030A5000030A400B101200008
:1007A0003208B800381CD52BD62BD82BA617DC2B3B
:1007B0007F30A8002808A6053836A7003108A80011
:1007C0002808A704A32A080082302100E600DD30B3
:1007D000890BE82BE60BE82B00328D31EF258331B6
:1007E0002100E600E7016608E8006708E9006808FC
:1007F0008831432083310030210069021E30031903
:100800006802031C042C052C062CE72CFF308931D0
:100810004721833120006F082100A10020006E08CD
:100820002100A00095318A25833144302100A000A9
:100830000030A10095317125833106302100E70099
:100840001330E600AD30890B232CE60B232CE70B8D
:10085000232C00328D31EF2583312100E600E701A2
:100860006608EA006708EB006A0888314320833194
:1008700003302100E7008A30E6005530890B3E2C1A
:10088000E60B3E2CE70B3E2C003214302100A0007A
:100890000030A10095317125833106302100E70039
:1008A0001330E600AD30890B532CE60B532CE70BCD
:1008B000532C00328D31EF2583312100E600E70112
:1008C0006608EC006708ED006C088831432083312E
:1008D00003302100E7008A30E6005530890B6E2C8A
:1008E000E60B6E2CE70B6E2C00322A302100A000A4
:1008F0000030A10095317125833121006D086B0214
:10090000031D842C6C086A020318872C882C982CF1
:10091000AA3089314721833120006F082100A100CE
:1009200020006E082100A00095318A258331A72C74
:10093000553089314721833120006F082100A10003
:1009400020006E082100A00095318A2583310230F5
:100950002100E7008630E6009930890BAD2CE60BCC
:10096000AD2CE70BAD2CFF308931472183312000BE
:100970006F082100A10020006E082100A000953121
:100980008A25833104302100E7008E30E6001230E2
:10099000890BC82CE60BC82CE70BC82C000096303E
:1009A00089314721833120006F082100A1002000F8
:1009B0006E082100A00095318A2583310D30210079
:1009C000E600FB30890BE22CE60BE22C003208003B
:1009D0002100B2002B0886008701403FAD00413F57
:1009E000AE002D0884002E0885001200253A031D54
:1009F000FA2CFB2CC12D2B088600870101308107C2
:100A000041310318810A2200C001C10103100030E6
:100A100003180130DE00FF30C200FF30C3002100A8
:100A20002B0886008701403FB300413FB4003308E4
:100A30008400340885001200643A0319202D212D0A
:100A40002B2D33088400340885001200693A031DF9
:100A50002A2D2B2DB72D2C08860087010108840034
:100A6000850102308107003FB500013FB600330821
:100A7000013EAD000030343DAE002B0886008701FA
:100A80002D08C03F2E08C13F2030B900B61B492DAC
:100A90004B2D01304C2D0030B1000130B902390826
:100AA000203E8600013087000A30A0000030A100FF
:100AB0003608A3003508A2008A31D02284312100F3
:100AC0002108A8002008A70094313924843121008E
:100AD0002708303E81000A30A0000030A10036080F
:100AE000A3003508A2008B31D923843121002108CD
:100AF000B6002008B500350836040319802D812D75
:100B0000862D3908031D852D862D4D2D3908031995
:100B10008A2D8B2DB02D310803198F2D902DB02DDE
:100B20000130B9023908203E8600013087002D309F
:100B30008100B02D3908203E860001308700010871
:100B4000AD00AE012D08A0002E08A1003208A200C1
:100B50008A312B22843101302100AD002D08B907E4
:100B600020303906031DB52DB62D9A2DD92D210023
:100B70002B08860087010130810741310318810A63
:100B8000D92D2B0886008701403FAD00413FAE00C4
:100B90002D0884002E0885000008AF00B0012F0842
:100BA000A0003008A1003208A2008A312B22843133
:100BB000B72D08002000A5007B0886008701403F74
:100BC000A000413FA10020088400210885001200F8
:100BD000253A031DEC2DED2DB12E7B0886008701F3
:100BE0000130810741310318810A2200C001C1018F
:100BF0000310003003180130DE00FF30C200FF3068
:100C0000C3007B0886008701403F2000A600413FCB
:100C1000A70026088400270885001200643A0319FB
:100C2000122E132E1D2E2608840027088500120080
:100C3000693A031D1C2E1D2EA82E7C0886008701F4
:100C400001088400850102308107003FA800013FB0
:100C5000A9002608013EA0000030273DA1007B0826
:100C6000860087012008C03F2108C13F2030AC002A
:100C7000A91B3B2E3D2E01303E2E0030A40001303A
:100C8000AC022C08203E8600013087000A30F000BC
:100C90000030F1002908F3002808F2008A317D2293
:100CA00085317108F8007008F700943116248531F9
:100CB0007708303E81000A30F0000030F10020005B
:100CC0002908F3002808F2008B317A238531710856
:100CD0002000A9007008A800280829040319712E13
:100CE000722E772E2C08031D762E772E3F2E2C0881
:100CF00003197B2E7C2EA12E24080319802E812E11
:100D0000A12E0130AC022C08203E86000130870065
:100D10002D308100A12E2C08203E86000130870056
:100D20000108A000A1012008F0002108F100250819
:100D3000F2008931DB21853101302000A00020083C
:100D4000AC0720302C06031DA62EA72E8B2EC92EF5
:100D50007B08860087010130810741310318810A31
:100D6000C92E7B0886008701403FA000413FA100BB
:100D700020088400210885000008A200A3012208A1
:100D8000F0002308F1002508F2008931DB218531CC
:100D9000A82E08002100A80028080319D02ED12E63
:100DA000E52EA31FD42ED52EE52E2009AA00210959
:100DB000AB002209AC002309AD00AA0A0319AB0A53
:100DC0000319AC0A0319AD0AED2E2308AD00220861
:100DD000AC002108AB002008AA002308220421044B
:100DE0002004031DF42EF52EFE2E0030A30000304B
:100DF000A2000030A1000030A000742F9630A9009E
:100E00000C2F0130A4002408A9070130AD36AC0C2A
:100E1000AB0CAA0C890B062FFE302D05031D112FDC
:100E2000122F012F262F0130A4002408A90701301A
:100E3000AA070030AB3D0030AC3D0030AD3D013085
:100E4000AD36AC0CAB0CAA0C890B202FFF302D0556
:100E5000031D2B2F2C2F132F362F0130A902013009
:100E6000AA35AB0DAC0DAD0D890B302FAC1B392F56
:100E70003A2F402F0230290203183F2F402F2D2FE9
:100E80002918432F442F4C2FFF30AA05FF30AB0504
:100E90007F30AC05FF30AD050310A90C2908A40074
:100EA000A501A601A7011830A435A50DA60DA70D13
:100EB000890B542F2408AA042508AB042608AC0487
:100EC0002708AD0428080319662F672F6C2FA31F6E
:100ED0006A2F6B2F6C2FAD172D08A3002C08A200D2
:100EE0002B08A1002A08A000080020009012210071
:100EF0006F082000DA00DB01DA35DB0D7030DC0032
:100F00002330DD005A085C0786005B085D3D8700E2
:100F10000030C03FC13F23009D1C8F2F902FAE2F6C
:100F200021006F082000DA00DB01DA35DB0D7030BC
:100F3000DC002330DD005A085C0786005B085D3D5D
:100F4000870001152200440845040319A82FA92F82
:100F5000AE2F45088A0044080A00873123001D1D72
:100F6000B22FB32FD12F21006F082000DA00DB0150
:100F7000DA35DB0D7030DC002330DD005A085C0709
:100F800086005B085D3D8700811422004608470407
:100F90000319CB2FCC2FD12F47088A0046080A000F
:100FA0008731230019082000DE0021006F08013E70
:100FB0003F392000DF005F0822006306031DE12F98
:100FC000E22FE32FF52F21006F08A03E86000130AD
:100FD000870020005E0881005F082100EF000130DB
:100FE0002000DA005A082200E20720005E0889315A
:100FF0008D21873108002400140E890C0139080066
:101000009331B22388312400161508002000D70040
:10101000933128238831F601F60A013097312827C9
:101020008831023020005702031C172818283B285B
:10103000FB30570203181D281E283B285030B300F0
:101040009830B4005708C500C6014508B5004608E9
:10105000B60047309631472688314730F6000030D9
:10106000F70096312A26883120005708F000923187
:101070009122883142284330F6009830F7009631AB
:101080002A26883108002100E50093316723883142
:101090002100A601A60A013097314E27883102307F
:1010A00021006502031C552856287A28FB3065026A
:1010B00003185B285C287A285030C1009830C200A1
:1010C0006508D300D4015308C3005408C400D530C8
:1010D000963164268831D5302100A6000030A70063
:1010E00096319F26883121006508A00093315E2348
:1010F000883181284330A6009830A70096319F267A
:10110000883108000430F1009231A1228831003A80
:1011100003198B288C28BD28200069086A0403194C
:1011200092289328AA28923181228831F000073032
:10113000603E86008701403F8400413F8500700883
:10114000800001302000E7070030E83D0130E9026F
:101150000030EA3B69086A040319AF28B028B428B4
:1011600092319D228831C028923187228831923174
:10117000A52288310730F100C028923184228831BD
:1011800071080800F300F4010130F000740AC92866
:10119000F035890BC82870087305F100740AD1284E
:1011A000F136890BD0287108F200F20E22000D08EA
:1011B0007206EF3972068D00C8300032890BDD28C7
:1011C00022000D17C8300032890BE32822000D16CB
:1011D0000D13C8300032890BEA280130F000700886
:1011E000F40708307402031CF628F728C4282200EC
:1011F0008D16C8300032890BFA2822008D12C830B3
:101200000032890B0029080092317B22893192310A
:10121000EC228931003A03190E290F291D29923138
:10122000D2228931003A0319162917291D290530C0
:101230002000ED000130EC0032298731FB27893195
:10124000003A03192429252932299231D2228931E1
:10125000003A03192C292D29322905302000ED00F0
:101260000230EC0020006D08F400F501F435F50DB6
:101270003130740784001830753D80388500013F97
:101280008A00003F0A0089312000ED00080021009B
:10129000A300A4010130A000240A4F29A035890B26
:1012A0004E2920082305A100240A5729A136890BBD
:1012B00056292108A200A20E22000D0821002206B4
:1012C000EF39220622008D00C8300032890B6529D3
:1012D00022000D17C8300032890B6B2922000D1631
:1012E0000D13C8300032890B722901302100A00093
:1012F0002008A40708302402031C7F2980294A29DA
:1013000022008D16C8300032890B832922008D12ED
:10131000C8300032890B892908002000D9005908FB
:10132000963181268931003A031D972998299929F8
:10133000DA298D310D258931883106208931220045
:10134000EA01200059089731752789312000590892
:101350009531BC258931200059088E31D926893133
:101360002000590A031DB529B629D1292200EA0116
:10137000EA0A5E302000EE000130EF002A30F00073
:101380000030F10094315E24893196308831C220DA
:10139000893120006F08F1006E08F00094314B2471
:1013A00089310D302000D800FB30890BD529D80BAE
:1013B000D5290032080072080319DF29E029E52940
:1013C0007208031DE429E529EA29700892316B228D
:1013D00089312A2A7208093E860087011600010415
:1013E0000319F329F429122A7208093E860087019D
:1013F000403FF300413FF4007208023E860087013F
:10140000403FF500413FF6007608803AF700740847
:10141000803A7702031D0E2A730875020318112AF9
:10142000122A2A2A7208860087017208023E840066
:10143000850100080107F300730886008701700822
:1014400081007208023E8600870101308107413128
:101450000318810A0800210022080319302A312AC2
:10146000362A2208031D352A362A3B2A20089231C3
:1014700071228A317C2A2208093E860087011600E3
:1014800001040319442A452A632A2208093E8600DA
:101490008701403FA300413FA4002208023E86008E
:1014A0008701403FA500413FA6002608803AA700DB
:1014B0002408803A2702031D5F2A23082502031807
:1014C000622A632A7C2A21002208860087012208DA
:1014D000023E8400850100080107A300230886005E
:1014E0008701200881002208023E86008701013022
:1014F000810741310318810A0800F601F31F812A90
:10150000822A892AF209F309F20A0319F30AF60179
:10151000F60AF11F8C2A8D2A922AF009F109F00AA5
:101520000319F10A700871040319972A982AC12A2D
:10153000F501F50AA42A0130F035F10D890B9C2A3A
:101540000130F4007408F507F11FA72AA82A9B2A86
:1015500071087302031DAE2A70087202031CB12ABF
:10156000B22AB62A7008F2027108F33B0130F13654
:10157000F00C890BB72A0130F502031DC02AC12ADD
:10158000A82A76080319C52AC62ACB2AF209F30924
:10159000F20A0319F30A7308F1007208F000080058
:1015A0002100A601A31FD52AD62ADD2AA209A30954
:1015B000A20A0319A30AA601A60AA11FE02AE12A8A
:1015C000E62AA009A109A00A0319A10A20082104FA
:1015D0000319EB2AEC2A152BA501A50AF82A0130DC
:1015E000A035A10D890BF02A0130A4002408A5071D
:1015F000A11FFB2AFC2AEF2A21082302031D022B2C
:1016000020082202031C052B062B0A2B2008A2020D
:101610002108A33B0130A136A00C890B0B2B013014
:10162000A502031D142B152BFC2A26080319192BC0
:101630001A2B1F2BA209A309A20A0319A30A230824
:10164000A1002208A000080022008C018D011830A2
:101650008E00193021008C0080308D009B308E0070
:10166000153023008C008D0101308E003A302400AB
:101670008C00F0308D00DF308E00210095132500A6
:101680008C018D018E01363026008C00F0308D00EB
:10169000FF308E00183027008C00F0308D000730AE
:1016A0008E0017303C00A40012303D00A60014301C
:1016B0003C00A00010303D00A40013303C00A1000D
:1016C00011303D00A30002303C0095000D303D007C
:1016D000920015303C0094000C303D00A50027001E
:1016E000910192019301940195019601970198014E
:1016F00099010800F601F11F7E2B7F2B862BF00944
:10170000F109F00A0319F10AF601F60AF31F892B11
:101710008A2B932BF209F309F20A0319F30A013019
:10172000F4007408F606F701F80170087104031953
:101730009A2B9B2BCA2BF501F50AA72B0130F0350C
:10174000F10D890B9F2B0130F4007408F507F11F90
:10175000AA2BAB2B9E2B0130F735F80D890BAC2B48
:1017600071087302031DB62B70087202031CB92B9B
:10177000BA2BBF2B7008F2027108F33B77140130CB
:10178000F136F00C890BC02B0130F502031DC92B7B
:10179000CA2BAB2B76080319CE2BCF2BD42BF709F2
:1017A000F809F70A0319F80A7808F1007708F00039
:1017B00008002100A601A11FDE2BDF2BE62BA009CC
:1017C000A109A00A0319A10AA601A60AA31FE92BD1
:1017D000EA2BF32BA209A309A20A0319A30A0130D9
:1017E000A4002408A606A701A801200821040319C3
:1017F000FA2BFB2B2A2CA501A50A072C0130A035BA
:10180000A10D890BFF2B0130A4002408A507A11FFF
:101810000A2C0B2CFE2B0130A735A80D890B0C2CA4
:1018200021082302031D162C20082202031C192C58
:101830001A2C1F2C2008A2022108A33B27140130D8
:10184000A136A00C890B202C0130A502031D292CE8
:101850002A2C0B2C260803192E2C2F2C342CA709EC
:10186000A809A70A0319A80A2808A1002708A000A8
:101870000800973103278C312100901191118B17AB
:101880000B1793317A238C314E308E3163268C3195
:10189000933118238C31933167238C312100A601B9
:1018A000A60A013097314E278C310C302100A6005A
:1018B0009830A70096319F268C318B1222000D1292
:1018C0008D120D13F4302100A0000130A1009531DC
:1018D0008A258C312A302100A0000030A1009531EA
:1018E00071258C319630893147218C3120006F0869
:1018F0002100A10020006E082100A00095318A255A
:101900008C3122006A080319862C872C8B2C83319A
:10191000E4238C31812C8D31EF258C3188314320AB
:101920008C31C3302100EE00CD30890B952CEE0BAD
:10193000952C812C80314128031020003C0D3D0D59
:10194000C3004308031DA52CA62CAF2C0030BD00FE
:101950000030BC000030BB000030BA000C2D3A084B
:10196000BE003B08BF003C08C0003D08C1001F305E
:10197000C136C00CBF0CBE0C890BB82C3E08C2008F
:10198000BC17FF30BA05FF30BB05FF30BC05003087
:10199000BD059630C302C31FCE2CCF2CE72C4308C5
:1019A000803A973E0318D52CD62CD72CA62C013084
:1019B000BD36BC0CBB0CBA0C890BD82C0130BE0058
:1019C0003E08C307031DE52CE62CD72CFC2C203049
:1019D0004302031CEC2CED2CF72CA62C0130BA355D
:1019E000BB0DBC0DBD0D890BEF2C0130C3024308AC
:1019F000031DFB2CFC2CEE2C42080319002D012D9D
:101A00000C2DBA09BB09BC09BD09BA0A0319BB0AE6
:101A10000319BC0A0319BD0A0800200097019601AA
:101A200022000E150330890B132D000022000E1129
:101A300020008E1C1C2D1D2D182D923172228D31EF
:101A400020008E18242D252D202D923175228D31C8
:101A500020001608C400C5011708C600C7014608C3
:101A6000C700C60144084607F0004508473DF1009D
:101A7000F201F11BF2037208F30001308F31562797
:101A80008D3173082000A7007208A6007108A50018
:101A90007008A4004230A3006B30A2004730A100C0
:101AA000AE30A00082313A228D3120002308BD00E3
:101AB0002208BC002108BB002008BA008C319C24FD
:101AC0008D3120003B08CA003A08C90000304A02A4
:101AD000023003194902031C6E2D6F2D782D003042
:101AE0004A02FB3003194902031C772D782D7C2D07
:101AF000BC30C9000230CA004908080003102100A8
:101B00004A0D4B0DD1005108031D872D882D912DB5
:101B10000030CB000030CA000030C9000030C800DF
:101B2000EE2D4808CC004908CD004A08CE004B08ED
:101B3000CF001F30CF36CE0CCD0CCC0C890B9A2D9C
:101B40004C08D000CA17FF30C805FF30C905FF3068
:101B5000CA050030CB059630D102D11FB02DB12D72
:101B6000C92D5108803A973E0318B72DB82DB92DCD
:101B7000882D0130CB36CA0CC90CC80C890BBA2D84
:101B80000130CC004C08D107031DC72DC82DB92D3D
:101B9000DE2D20305102031CCE2DCF2DD92D882DC6
:101BA0000130C835C90DCA0DCB0D890BD12D0130BF
:101BB000D1025108031DDD2DDE2DD02D5008031953
:101BC000E22DE32DEE2DC809C909CA09CB09C80ABF
:101BD0000319C90A0319CA0A0319CB0A080020000D
:101BE0009701960122000E150330890BF52D000098
:101BF00022000E1120008E1CFE2DFF2DFA2D923199
:101C0000F3228D3120008E18062E072E022E9231DF
:101C1000FA228D31200016082100D200D3012000C5
:101C200017082100D400D5015408D500D40152086A
:101C30005407A0005308553DA100A201A11BA20317
:101C40002208A30001308631CA268D3121002308E5
:101C5000B5002208B4002108B3002008B2004230C9
:101C6000B1006B30B0004730AF00AE30AE00803115
:101C700090208D3121003108CB003008CA002F0898
:101C8000C9002E08C8008D317E258D3121004908FC
:101C9000D8004808D7000030580202300319570214
:101CA000031C532E542E5D2E00305802FB300319B6
:101CB0005702031C5C2E5D2E612EBC30D700023013
:101CC000D800570808002100A70027082200E000DC
:101CD00000309431EB248E3127302100A600F530FE
:101CE000890B702EA60B702E0330953159258E313D
:101CF00007302100A6007D30890B7C2EA60B7C2EA0
:101D00000330953159258E3107302100A6007D30F2
:101D1000890B882EA60B882E0330953159258E31DC
:101D200007302100A6007D30890B942EA60B942E3F
:101D30000230953159258E3107302100A6007D30C3
:101D4000890BA02EA60BA02E2830953159258E3157
:101D500041302100A600EE30890BAC2EA60BAC2E34
:101D600000000C30953159258E3141302100A600FC
:101D7000EE30890BB92EA60BB92E0000013095313B
:101D800059258E3141302100A600EE30890BC62E38
:101D9000A60BC62E00000630953159258E314130F4
:101DA0002100A600EE30890BD32EA60BD32E000007
:101DB0000800F70077080739F800392F9630883186
:101DC000C2208E3120006F08F1006E08F0009431BF
:101DD0004B248E31552F69308831C2208E3120003E
:101DE0006F08F1006E08F00094314B248E31552FAE
:101DF00099308831C2208E3120006F08F1006E08C2
:101E0000F00094314B248E31552F66308831C2203A
:101E10008E3120006F08F1006E08F00094314B24E1
:101E20008E31552FAA308831C2208E3120006F08A4
:101E3000F1006E08F00094314B248E31552F55304F
:101E40008831C2208E3120006F08F1006E08F0004A
:101E500094314B248E31552FFF308831C2208E3182
:101E600020006F08F1006E08F00094314B248E3191
:101E7000552F7808F500F6017608003A0319412F2E
:101E80002C2F7508003A0319DE2E013A0319EB2EA8
:101E9000033A0319F82E013A0319052F073A0319DB
:101EA000122F013A03191F2F2C2F0800F800780871
:101EB00003195B2F5C2F702FF31F5F2F602F702F84
:101EC0007009FA007109FB007209FC007309FD003A
:101ED000FA0A0319FB0A0319FC0A0319FD0A782FF1
:101EE0007308FD007208FC007108FB007008FA001E
:101EF0007308720471047004031D7F2F802F892FD3
:101F00000030F3000030F2000030F1000030F0004B
:101F1000FF2F9630F900972F0130F4007408F9076D
:101F20000130FD36FC0CFB0CFA0C890B912FFE30B6
:101F30007D05031D9C2F9D2F8C2FB12F0130F400A8
:101F40007408F9070130FA070030FB3D0030FC3D12
:101F50000030FD3D0130FD36FC0CFB0CFA0C890B0A
:101F6000AB2FFF307D05031DB62FB72F9E2FC12F3E
:101F70000130F9020130FA35FB0DFC0DFD0D890B26
:101F8000BB2FFC1BC42FC52FCB2F023079020318A7
:101F9000CA2FCB2FB82F7918CE2FCF2FD72FFF30A6
:101FA000FA05FF30FB057F30FC05FF30FD0503100F
:101FB000F90C7908F400F501F601F7011830F43551
:101FC000F50DF60DF70D890BDF2F7408FA0475086F
:101FD000FB047608FC047708FD0478080319F12F48
:101FE000F22FF72FF31FF52FF62FF72FFD177D0890
:101FF000F3007C08F2007B08F1007A08F00008008A
:10200000A334173400340034003400345E34133405
:102010000034003400340034003400340034003420
:102020000034003400340034003400340034003410
:102030000034003400340034003400340034003400
:102040000034003400340034E834133400340034F5
:10205000CA341334D9341334003400340034003417
:1024D40008000800080008000800080008000800B8
:1024E4002000181408002000181008002000911182
:1024F400080020009011080024001615080024008C
:1025040011080800240096150800240096100800FD
:1025140024009614080023001D121D1608007008DC
:1025240023009A0008002400951295160800240040
:10253400951315130800240096121616080024009B
:102544001408013908002400961616160800200005
:10255400E001083008009631E02692310800893104
:10256400042192310800F000700824009100080052
:102574009331A62392312400161408009331A62324
:102584009231240016150800933110239231F00083
:10259400700808009231E5229231F00070080800BA
:1025A4002400160E890C890C013908009331B223DA
:1025B4009231240016140800200061359231B522AE
:1025C4009231033008009231952292312000E001CB
:1025D4000030080003102400941E03140030093D49
:1025E40008007E1CF72A9231722A20001814080071
:1025F4007E1CFE2A9231752A2000181008006A34C5
:102604007C34EE34E034B034013408340314200054
:10261400610D9231B52293310430080092317E224B
:1026240093319431D62493310030080008302200CD
:10263400EB0000309431EB24933108006A30210020
:10264400990022009601210098010800013094317C
:10265400C12493310D30890B2D2B0000080021007B
:1026640021082200D900210020082200D8000800F7
:10267400210021082200CD00210020082200CC00E6
:102684000800210021082200D70021002008220090
:10269400D6000800210021082200CB0021002008D8
:1026A4002200CA000800210021082200D5002100D0
:1026B40020082200D40008007E1C622B9231912A4B
:1026C4002100200823009A00080001309531592583
:1026D40093310D30890B6C2B000008008F302500DE
:1026E400930001309200FF309100FC309E050800F9
:1026F400383024009500960194010930920021009D
:102704000E168E150800903021009E009B019C013E
:102714009F0101309D002000101308008F30250018
:102724009A009901183098001E08F33904389E0065
:1027340008008B10210015170030A0000030A10004
:10274400933131239331080024001419AA2BAB2BA5
:10275400A62B16081F39031DB02BB12BA62B08007E
:1027640024001419B62BB72BB22B16081F39031DDE
:10277400BC2BBD2BB22B0800640080010131013059
:10278400FE020030FF3B7F087E04031DBF2B003494
:102794002100200821040319D02BD12BD82B210888
:1027A4002200C700210020082200C60008002100E2
:1027B400200821040319DF2BE02BE72B210822003A
:1027C400C500210020082200C400080021002008C0
:1027D40021040319EE2BEF2BF62B21082200DB003A
:1027E400210020082200DA0008002100200821042A
:1027F4000319FD2BFE2B052C21082200DD002100EE
:1028040020082200DC000800F0009331A623943154
:102814007008240091002000901D112C122C0D2C06
:102824009011240016080800F81B192C1A2C1B2CD4
:10283400262C7709F9007809FA00F90A0319FA0A2B
:102844007908F7007A08F80008002100A000933105
:10285400B223943121002008240091002000901D0F
:10286400342C352C302C901124001608080021003B
:10287400A81B3D2C3E2C3F2C4A2C2709A9002809D3
:10288400AA00A90A0319AA0A2908A7002A08A80065
:102894000800FF30F0050330F10525001A1E532C03
:1028A400542C592C0630F035F10D890B552C710838
:1028B4009900700898000800FF30F0050330F10516
:1028C4002500131E662C672C6C2C0630F035F10D98
:1028D400890B682C71089200700891000800F100BF
:1028E4009231BA2294312200600894310624943142
:1028F400710822006B049431062494319231C02271
:10290400943108008030240094000830950096012A
:102914009701093092006C302100A0001230A10010
:102924009331F723943124009516080020009E016A
:102934009D019F01FF309B009A016E302100A00091
:102944001230A10093314323943120009010F030D1
:102954009C000800F30022006108F2007208F304EE
:10296400730804389431712494317308FB39943119
:10297400712494311030890BBD2C00320800F5000D
:102984002200E1017508F0399431AC2494317508C2
:10299400F4000330F435FF3E031DCC2C7435F039BC
:1029A4009431AC24943108002000E0010030E200AE
:1029B400FF30E100E301E401E701E801ED019231B8
:1029C4007B2294319231782294319231992294313C
:1029D40008002100A1009231D8229431220060081D
:1029E4009431272494312100210822006B0494316E
:1029F400272494318831002094310800280097015D
:102A0400960198019C309400930170302100A0003D
:102A14001230A10093314C23953120009110F030F5
:102A2400280095000800F5002200E101E10A75087C
:102A3400F0399431AC2495317508F4000330F43541
:102A4400FF3E031D212D7435F0399431AC249531AA
:102A5400080021001508C039173895003D302000C2
:102A640095003D302200E4006D302100A0001230BA
:102A7400A1009331552395310B118B1608002100C9
:102A8400A300220061082100A2002208A304230855
:102A940004389431EB24953121002308FB39943117
:102AA400EB2495311030890B552D0032080021009C
:102AB400A5002200E10121002508F03995314125C6
:102AC400953121002508A4000330A435FF3E031DE1
:102AD400672D2435F0399531412595310800FF30B3
:102AE4002100A0050330A1052500131E7A2D7B2D9E
:102AF400812D06302100A035A10D890B7D2D2100EB
:102B040021082500920021002008250091000800DA
:102B1400FF302100A0050330A10525001A1E932DC6
:102B2400942D9A2D06302100A035A10D890B962DE8
:102B34002100210825009900210020082500980083
:102B440008002100A5002200E101E10A2100250876
:102B5400F03995314125953121002508A400033031
:102B6400A435FF3E031DB22D2435F039953141259E
:102B740095310800F2007208F0000330F036890B3A
:102B8400C02D7008F3000730F0007008F3057308D7
:102B9400F000F1010730F035F10D890BCD2D7008EF
:102BA4002000EE007108EF00080020009901FF30BA
:102BB4009700FF30960017082200D1002000160865
:102BC4002200D0006F302100A0001230A100933108
:102BD4003A2395312000101090130130980008001A
:102BE4002000B0002E08B2002D08B100012E3130B3
:102BF400FB002F08FC0030088531DA2595312000D0
:102C040031088400320885001200031D0A2E0B2EA1
:102C1400F92DAD01AE0108002100BE003B08C00043
:102C24003A08BF001D2EBF30AB003C08AC003E0884
:102C34008431E824963121003F088400400885004F
:102C44001200031D262E272E152EBA01BB010800E3
:102C5400F901FA013B2E76087907840077087A3D5A
:102C6400850000089531152596310130F9070030AB
:102C7400FA3D76087907840077087A3D85001200CA
:102C8400031D452E462E2D2E08002000B900353098
:102C9400B8003908BA00BC01BD01C301C40134083D
:102CA400AE003308AD003830AF003A309531F2252C
:102CB400963120003C083907B700370886008701A1
:102CC400810108002100C700C330C6004708C800BE
:102CD400CA01CB01D101D2014208BB004108BA00AC
:102CE400C630BC00C83096310E26963121004A0801
:102CF4004707C50045088600870181010800F100E7
:102D0400053022005F06031D882E892E8C2EDF01DC
:102D140001309E2E5F08653E860001308700010861
:102D24007106031D962E972E9C2E0130F00070081C
:102D3400DF079D2EDF01003008002100A901AA0150
:102D4400B22E26082907840027082A3D850000089A
:102D54009531A325963101302100A9070030AA3D01
:102D640026082907840027082A3D85001200031D30
:102D7400BC2EBD2EA32E08000B11220064082000D7
:102D8400950001302200D2070030D33D00305302B9
:102D94000A3003195202031CD02ED12EDF2E540800
:102DA40055040319D62ED72EDC2E55088A00540854
:102DB4000A0096312200D201D30108000630200017
:102DC400ED000330EC0092317822963120006D083A
:102DD400F400F501F435F50D313074078400183032
:102DE400753D80388500013F8A00003F0A00963116
:102DF4002000ED0022005D088A005C080A0097317B
:102E040008009331202397318B3124239731933158
:102E1400852397319731A3279731943184249731AF
:102E240093317023973193319023973195312B252A
:102E340097319531D725973194319824973195312D
:102E44000025973193319B2397310800F700422FD7
:102E54007608BF3E9431C12497314D2F7608933EB6
:102E64009431C12497314D2F7608D33E9431C12437
:102E740097314D2F76087F3E9431C12497314D2FE1
:102E84007708023A03192A2F013A0319302F073A17
:102E94000319362F3C2F08002100A700692F2608AC
:102EA400BF3E953159259731742F2608933E9531AD
:102EB40059259731742F2608D33E953159259731DA
:102EC400742F26087F3E953159259731742F270892
:102ED400023A0319512F013A0319572F073A0319DC
:102EE4005D2F632F0800F3007308F2000630F236FA
:102EF400890B792F7208F400972F4430F0000030CA
:102F0400F10094315E249731A22F2A30F000003072
:102F1400F10094315E249731A22F1430F000003078
:102F2400F10094315E249731A22F7408003A0319FA
:102F34007F2F013A0319872F033A03198F2FA22FEA
:102F44000800210090127530A0000730A1009331D1
:102F5400E8239731483023009F0090309D002630AD
:102F64009E0067309B009C016A302100A000123053
:102F7400A1009331CA2397318D302100A000123073
:102F8400A1009331D92397312200C801C90121003E
:102F9400EF012200E301E201210090160800200065
:102FA400650866040319D72FD82FEE2F0130E502E8
:102FB4000030E63B6408F2006308F100E30A0319F9
:102FC400E40A710886007208870001089231B5226C
:102FD40097310330F300FE2F6B080319F22FF32F00
:102FE400FA2FEB0192318A229731F301F30AFE2F73
:102FF400933110239731F300730808009834143484
:1030040000340034003400340034003443341334C6
:10301400003400344D3461347334743465347234A0
:103024002034433461346D347034203432343034D9
:1030340032343434003484341434003400340034EE
:1030440000340034003400340034003400340034DC
:10305400003400340034F734133400340034A93419
:10306400123408341334DE341234D1341734823435
:103074000834C6341234CC34123410341334E534E6
:1030840012344F347534743420346F34663420343D
:10309400523461346E3467346534003444346934F2
:1030A400733474342E343A34203425346434203464
:1030B40063346D3400340034153400340034003487
:1030C4000034003400344C34133400340034D73426
:1030D4001534F3341234FA341234003400343A34EC
:1030E4001334003400342B341534003400340034E9
:0E30F4000034003400345534133400340034FA
:020000040001F9
:06000E007C3FFF3E9F3F16
:00000001FF
