:1000000080314128080008007E1480310B1F092828
:100010000A283F282100901D0E280F2817282000AD
:10002000901D13281428172889315521803121006B
:10003000901E1B281C2827282000901E20282128DD
:100040002728210049088A0048080A008031210039
:10005000911D2B282C2834282000911D3028312870
:1000600034288931512180318B1E372838283F2888
:100070000B1D3B283C283F288C316C2480317E109E
:1000800009008031432889315D218031E6008931C2
:100090005E218031E70089315F218031E8008931BC
:1000A00060218031E90070308400893085002100B2
:1000B0001200E4001200E5001200E6001200E70062
:1000C0001200E80070308400233085008030FE008C
:1000D0000030FF008A313B228031FD012000DF012A
:1000E000E001E101E201E301E401E501A030840067
:1000F000003085002C30FE000030FF008A313B22AA
:10010000803120308400013085002030FE00003036
:10011000FF008A313B228031A0308400013085000D
:100120004030FE000030FF008A313B2280317E10DB
:1001300020008731622F200039088039C30039350B
:10014000CA00B81FA428A528A6284A144A080319DB
:10015000AA28AB28BB284A0A031DAF28B028B82814
:100160000030B9000030B8000030B7000030B600F1
:10017000B817B901C3280030B9000030B80000300A
:10018000B7000030B60035088039BA003A08C30617
:100190003535CB00B41FCD28CE28CF284B144B08C3
:1001A0000319D328D428E4284B0A031DD828D928BA
:1001B000E1280030B5000030B4000030B30000305A
:1001C000B200B417B501EC280030B5000030B4001F
:1001D0000030B3000030B200350834043304320478
:1001E000031DF328F4280D290030B9000030B800B1
:1001F0000030B7000030B6008030B8047F30B9045A
:100200004308BA003A08B9043908B5003808B40000
:100210003708B3003608B200442A4A08031D1129E2
:1002200012291B290030B5000030B4000030B300A3
:100230000030B200442A4A08BA00BB013B08BD00A6
:100240004B083A02BC00031CBD033C087F3EC400BF
:1002500000303D3DC5003908C2003808C1003708EC
:10026000C0003608BF000030B9000030B8000030D0
:10027000B7000030B6000030C9000030C8000030C0
:10028000C7000030C600CB0183294B080319492958
:100290004A2964290130BF35C00DC10DC20D890B3B
:1002A0004B290130B635B70DB80DB90D890B522960
:1002B000C91F5B295C295D2936140130C635C70D7D
:1002C000C80DC90D890B5E2935084202031D72292C
:1002D00034084102031D722933084002031D7229AC
:1002E00032083F02031C752976297F2949173208F5
:1002F000BF023308C03B3408C13B3508C23B013064
:10030000BA003A08CB071A304B02031C8829892906
:1003100045294208410440043F04031990299129CA
:10032000AA294614AA290130B635B70DB80DB90D62
:10033000890B9429C91F9D299E299F2936140130B4
:10034000C635C70DC80DC90D890BA029FF30C407DC
:10035000FF30C53DB81FAD29AE299329CB01C91F78
:10036000B229B329CF29FF304605BA00FF3047052F
:10037000BB00FF304805BC007F304905BD003D088B
:100380003C043B043A040319C629C729CA29CB01F6
:10039000CB0ACF29361CCD29CE29CF29C7294B0816
:1003A0000319D329D429FC290130B6070030B73D01
:1003B0000030B83D0030B93D391CDF29E029FC2967
:1003C0003608BA003708BB003808BC003908BD0041
:1003D0000130BE00BD37BC0CBB0CBA0CBE0BEA2909
:1003E0003D08B9003C08B8003B08B7003A08B60021
:1003F0000130C4070030C53D4508803ABA0080305E
:100400003A02031D052AFF304402031C082A092A68
:10041000162AFF302000C4000030C5000030B900AB
:100420000030B8000030B7000030B60020004508AA
:10043000803ABA0080303A02031D202A013044027B
:100440000318232A242A302A2000C401C5010030C1
:10045000B9000030B8000030B7000030B600C3016A
:1004600020004408CA004A1C362A372A392AB817FD
:100470003D2A7F30BA003A08B8054A36B900430829
:10048000BA003A08B904042908002000B6002F0871
:1004900086008701403FB100413FB200310884002F
:1004A000320885001200253A031D572A582A202BAE
:1004B0002F08860087010130810741310318810A26
:1004C0002100AE01AF0103100030031801302000FD
:1004D000DF00FF302100B000FF30B10020002F0806
:1004E00086008701403FB700413FB80037088400CD
:1004F000380885001200643A03197F2A802A8A2A64
:1005000037088400380885001200693A031D892ADB
:100510008A2A162B3008860087010108840085018D
:1005200002308107003FB900013FBA003708013EA1
:10053000B1000030383DB2002F0886008701310835
:10054000C03F3208C13F2030BD00BA1BA82AAA2AEA
:100550000130AB2A0030B5000130BD023D08203E1D
:100560008600013087000A30A4000030A5003A0858
:10057000A7003908A6008E31F62682312000250812
:10058000AC002408AB008A31B622823120002B084F
:10059000303E81000A30A4000030A5003A08A700D0
:1005A0003908A6008F31A027823120002508BA0023
:1005B0002408B90039083A040319DF2AE02AE52A99
:1005C0003D08031DE42AE52AAC2A3D080319E92A5F
:1005D000EA2A0F2B35080319EE2AEF2A0F2B0130D8
:1005E000BD023D08203E8600013087002D3081008D
:1005F0000F2B3D08203E8600013087000108B10026
:10060000B2013108A4003208A5003608A6008E31D8
:10061000A426823101302000B1003108BD0720300E
:100620003D06031D142B152BF92A382B20002F080B
:10063000860087010130810741310318810A382B78
:100640002F0886008701403FB100413FB2003108CA
:100650008400320885000008B300B4013308A40008
:100660003408A5003608A6008E31A4268231162B48
:1006700008008431292483312000DC00DD015C087E
:100680002100DE0020005D082100DF0000305F0255
:100690001E3003195E0203184E2B4F2B1F2CFF3008
:1006A0008E315E26833120006708A5006608A4000D
:1006B0008B31C323833144302000A4000030A500D7
:1006C0008B31AA23833108302000DD009D30DC000F
:1006D0000530890B692BDC0B692BDD0B692B003294
:1006E0008431292483312000DC00DD015C082100F5
:1006F000E00020005D082100E10082302000DC00E5
:10070000DD30890B812BDC0B812B00321430200073
:10071000A4000030A5008B31AA23833108302000CB
:10072000DD009D30DC000530890B942BDC0B942B15
:10073000DD0B942B00328431292483312000DC002E
:10074000DD015C082100E20020005D082100E300DB
:1007500082302000DC00DD30890BAC2BDC0BAC2BB5
:1007600000322A302000A4000030A5008B31AA23DB
:100770008331210063086102031DC02B62086002FF
:100780000318C32BC42BE92B55308E315E268331E1
:1007900020006708A5006608A4008B31C3238331BD
:1007A00002302000DD008630DC009930890BD62B2A
:1007B000DC0BD62BDD0BD62BFF308E315E26833142
:1007C00020006708A5006608A4008B31C32383318D
:1007D000062CAA308E315E26833120006708A500E2
:1007E0006608A4008B31C323833102302000DD0072
:1007F0008630DC009930890BFB2BDC0BFB2BDD0BEF
:10080000FB2BFF308E315E268331E02B043020003D
:10081000DD008E30DC001230890B0C2CDC0B0C2C34
:10082000DD0B0C2C000096308E315E2683312000CB
:100830006708A5006608A4008B31C32383310D30FF
:100840002000DC00FB30890B232CDC0B232C003236
:10085000080020009701960122000E150330890B35
:100860002F2C000022000E1120008E1C382C392C59
:10087000342C89312F21843120008E18402C412CBA
:100880003C2C89313221843120001608D700D80150
:100890001708D900DA015908DA00D90157085907B1
:1008A000A40058085A3DA500A601A51BA6032608CA
:1008B000A70001308431DB24843120002708B900EF
:1008C0002608B8002508B7002408B6004230B50055
:1008D0006B30B4004730B300AE30B20080319B20A3
:1008E000843120003508CF003408CE003308CD0015
:1008F0003208CC008631F126843120004D082100D9
:10090000DD0020004C082100DC0000305D020230D8
:1009100003195C02031C8D2C8E2CC22C00305D024E
:10092000FB3003195C020318962C972CC22C8931DA
:10093000EF2184312000AA01AA0A01308C31D4248D
:10094000843180302000C5009030C60021005D0851
:100950002000C80021005C082000C700CC308C318A
:1009600030248431CC302000AA000030AB008C3120
:100970004D24843121005C082000A40089316B21C2
:100980008431D82CBC30DC000230DD008931EF210D
:1009900084312000AA01AA0A01308C31D424843188
:1009A00073302000AA009030AB008C314D2484318C
:1009B00021005C0808002000AC002C080319E12C81
:1009C000E22CF62CA71FE52CE62CF62C2409AE0011
:1009D0002509AF002609B0002709B100AE0A0319A6
:1009E000AF0A0319B00A0319B10AFE2C2708B10097
:1009F0002608B0002508AF002408AE00270826040A
:100A000025042404031D052D062D0F2D0030A700FD
:100A10000030A6000030A5000030A400852D9630DF
:100A2000AD001D2D0130A8002808AD070130B136FA
:100A3000B00CAF0CAE0C890B172DFE303105031D29
:100A4000222D232D122D372D0130A8002808AD07A7
:100A50000130AE070030AF3D0030B03D0030B13D59
:100A60000130B136B00CAF0CAE0C890B312DFF301C
:100A70003105031D3C2D3D2D242D472D0130AD02A8
:100A80000130AE35AF0DB00DB10D890B412DB01B4E
:100A90004A2D4B2D512D02302D020318502D512D72
:100AA0003E2D2D18542D552D5D2DFF30AE05FF30F8
:100AB000AF057F30B005FF30B1050310AD0C2D0838
:100AC000A800A901AA01AB011830A835A90DAA0DEB
:100AD000AB0D890B652D2808AE042908AF042A0840
:100AE000B0042B08B1042C080319772D782D7D2D27
:100AF000A71F7B2D7C2D7D2DB1173108A700300855
:100B0000A6002F08A5002E08A4000800F70077080B
:100B10000739F800E62D96308D31D9258531200032
:100B20006708F1006608F0008A31C8228531022E7C
:100B300069308D31D925853120006708F1006608BC
:100B4000F0008A31C8228531022E99308D31D925A5
:100B5000853120006708F1006608F0008A31C8225C
:100B60008531022E66308D31D92585312000670808
:100B7000F1006608F0008A31C8228531022E553016
:100B80008D31D925853120006708F1006608F00015
:100B90008A31C8228531022EAA308D31D92585317E
:100BA00020006708F1006608F0008A31C82285310C
:100BB000022EFF308D31D925853120006708F100E4
:100BC0006608F0008A31C8228531022E7808F500C7
:100BD000F6017608003A0319EE2DD92D7508003A72
:100BE00003198B2D013A0319982D033A0319A52DEA
:100BF000013A0319B22D073A0319BF2D013A03191F
:100C0000CC2DD92D0800200090127D08A000A10154
:100C1000A035A10D7030A2002330A30020082207C8
:100C200086002108233D87000030C03FC13F2300DC
:100C30009D1C1B2E1C2E392E7D082000A000A1011A
:100C4000A035A10D7030A2002330A3002008220798
:100C500086002108233D8700011521003208330456
:100C60000319332E342E392E33088A0032080A0035
:100C7000863123001D1D3D2E3E2E5B2E7D0820005B
:100C8000A000A101A035A10D7030A2002330A30067
:100C90002008220786002108233D870081142100B7
:100CA000340835040319552E562E5B2E35088A005C
:100CB00034080A00863123001908FB007D08013E34
:100CC0003F39FC007C0820006406031D682E692E55
:100CD0006A2E772E7D08A03E8600013087007B08B3
:100CE00081007C08FD000130A0002008E3077B089C
:100CF0008D319825863108002000AB002B08E100DB
:100D000000308B310123863127302000AA00F530D6
:100D1000890B882EAA0B882E03308B317D238631D8
:100D200007302000AA007D30890B942EAA0B942E48
:100D300003308B317D23863107302000AA007D30BF
:100D4000890BA02EAA0BA02E03308B317D23863178
:100D500007302000AA007D30890BAC2EAA0BAC2EE8
:100D600002308B317D23863107302000AA007D3090
:100D7000890BB82EAA0BB82E28308B317D238631F3
:100D800041302000AA00EE30890BC42EAA0BC42EDD
:100D900000000C308B317D23863141302000AA00C9
:100DA000EE30890BD12EAA0BD12E000001308B31F1
:100DB0007D23863141302000AA00EE30890BDE2EE3
:100DC000AA0BDE2E000006308B317D2386314130A8
:100DD0002000AA00EE30890BEB2EAA0BEB2E0000B0
:100DE0000800031020004E0D4F0DD5005508031DBF
:100DF000FA2EFB2E042F0030CF000030CE00003042
:100E0000CD000030CC00612F4C08D0004D08D1003F
:100E10004E08D2004F08D3001F30D336D20CD10C6D
:100E2000D00C890B0D2F5008D400CE17FF30CC0505
:100E3000FF30CD05FF30CE050030CF059630D5020E
:100E4000D51F232F242F3C2F5508803A973E031897
:100E50002A2F2B2F2C2FFB2E0130CF36CE0CCD0C72
:100E6000CC0C890B2D2F0130D0005008D507031D65
:100E70003A2F3B2F2C2F512F20305502031C412F8E
:100E8000422F4C2FFB2E0130CC35CD0DCE0DCF0D8A
:100E9000890B442F0130D5025508031D502F512FC7
:100EA000432F54080319552F562F612FCC09CD0914
:100EB000CE09CF09CC0A0319CD0A0319CE0A0319AA
:100EC000CF0A08008C31AF24873121009011911195
:100ED0008B170B17901191118A31022287314E30F6
:100EE00086317C2687318931B22187318931EF21E2
:100EF00087312000AA01AA0A01308C31D42487311D
:100F00003C302000AA009030AB008C314D2487315A
:100F10008B1222000D128D120D13F4302000A4004C
:100F20000130A5008B31C32387312A302000A40073
:100F30000030A5008B31AA23873196308E315E2692
:100F4000873120006708A5006608A4008B31C32301
:100F50008731200068080319AE2FAF2FB32F8331DC
:100F600039238731A92F8431292487310D3020007E
:100F7000DE00FB30890BBA2FDE0BBA2F0032A92F0F
:100F800080314128F7007708F2000630F236890BED
:100F9000C62F7208F300F4017308F5007408F60018
:100FA000E92F4430F0000030F1008A31DB22873134
:100FB000F92F2A30F0000030F1008A31DB2287312E
:100FC000F92F1430F0000030F1008A31DB22873134
:100FD000F92F7608003A0319EE2FF92F7508003A19
:100FE0000319D12F013A0319D92F033A0319E12F1D
:100FF000F92F08008A3123228731240016150800B2
:10122A0008000800080008000800200091110800C2
:10123A002000901108002400161508002400110847
:10124A0008002400961508002400961008002400BF
:10125A00961408002000181408002000181008002E
:10126A0023001D121D160800240095129516080069
:10127A002400951315130800240096121616080068
:10128A0024001408013908002400961616160800CE
:10129A002100A001083008008C318D248931080012
:1012AA008E311B26893108008931172189310800BE
:1012BA005E34013401340834F000700824009100CF
:1012CA0008002400140E890C0139080020002408A3
:1012DA0023009A0008006A347C34EE34E034B034D7
:1012EA008931AA218931F0007008080089319421D6
:1012FA008931F000700808002400160E890C890C48
:10130A00013908008A312322893124001614080081
:10131A002100213589316121893103300800893161
:10132A00392189312100A00100300800031024006E
:10133A00941E03140030093D080003142100210DF6
:10134A0089316121893104300800893120218931AC
:10135A008B313D2389310030080008302000E90034
:10136A0000308B310123893108006A30210099004D
:10137A00220096012100980108002000250821007A
:10138A00C700200024082100C60008002000250804
:10139A002100BB00200024082100BA000800200018
:1013AA0025082100C500200024082100C4000800E7
:1013BA00200025082100B900200024082100B800D7
:1013CA000800200025082100C3002000240821006D
:1013DA00C200080001308B317D2389310D30890B21
:1013EA00F429000008008F30250093000130920094
:1013FA00FF309100FC309E0508003830240095002B
:10140A00960194010930920021000E168E150800EB
:10141A00903021009E009B019C019F0101309D009C
:10142A002000101308008F3025009A009901183007
:10143A0098001E08F33904389E0008002400141985
:10144A00272A282A232A16081F39031D2D2A2E2A5D
:10145A00232A08008B102100151700302000A40051
:10146A000030A5008931C2218A3108006400800158
:10147A0001310130FE020030FF3B7F087E04031D6C
:10148A003C2A0034F2007208F000F1010730F0350E
:10149A00F10D890B4C2A70082000E6007108E7005C
:1014AA00080020002408250403195C2A5D2A642AFE
:1014BA0025082100B500200024082100B4000800F6
:1014CA0020002408250403196B2A6C2A732A25088C
:1014DA002100B300200024082100B20008002000E7
:1014EA002408250403197A2A7B2A822A250821003E
:1014FA00C900200024082100C80008002000240890
:10150A0025040319892A8A2A912A25082100CB0051
:10151A00200024082100CA000800F4007408F3001F
:10152A000330F336890B962A7308F5000730F30067
:10153A007308F50575088A3147228A3108002000A8
:10154A00A4008A3123228A31200024082400910031
:10155A002000901DB12AB22AAD2A90112400160843
:10156A0008002000AC1BBA2ABB2ABC2AC72A2B09AE
:10157A00AD002C09AE00AD0A0319AE0A2D08AB0066
:10158A002E08AC000800FF30F0050330F1052500F5
:10159A001A1ED02AD12AD62A0630F035F10D890B27
:1015AA00D22A71089900700898000800FF30F005E7
:1015BA000330F1052500131EE32AE42AE92A06303E
:1015CA00F035F10D890BE52A710892007008910037
:1015DA00080020009E019D019F01FF309B009A0197
:1015EA001830A4000930A5008931D4218A3120009D
:1015FA009010F0309C0008002000A5008931872156
:10160A008B31200061088A31A4228B312000250801
:10161A0069048A31A4228B318731FA278B31080079
:10162A008030240094000830950096019701093013
:10163A00920016302000A4000930A5008A318322C6
:10164A008B3124009516080021001508C039173877
:10165A0095003D30200095003D30E5005930A4004A
:10166A000930A5008931E6218B310B118B16080050
:10167A002100A0010030A200FF30A100A301A401B3
:10168A00A701A801AD0189311D218B3189311A21A8
:10169A008B3189313D218B31080028009701960151
:1016AA0098019C309400930102302000A40000307D
:1016BA00A5008931DD218B3120009110F0302800FE
:1016CA00950008002000A7006208A6002608A704C3
:1016DA00270804388B3101238B3120002708FB3976
:1016EA008B3101238B311030890B792B00320800A2
:1016FA002000A900E2012908F0398B3167238B31D8
:10170A0020002908A8000330A835FF3E031D892BB5
:10171A002835F0398B3167238B3108002000A90066
:10172A00E201E20A2908F0398B3167238B31200064
:10173A002908A8000330A835FF3E031DA02B283531
:10174A00F0398B3167238B310800FF302000A40564
:10175A000330A5052500131EB32BB42BBA2B063074
:10176A002000A435A50D890BB62B200025082500DD
:10177A00920020002408250091000800FF30200074
:10178A00A4050330A50525001A1ECC2BCD2BD32B7F
:10179A0006302000A435A50D890BCF2B2000250883
:1017AA002500990020002408250098000800200040
:1017BA009901FF309700FF30960017082100BF00FB
:1017CA00200016082100BE0019302000A4000930AC
:1017DA00A5008931CB218B312000101090130130E4
:1017EA00980008002000C2003F08C4003E08C30059
:1017FA00062C4330AF004008B0004208823145222F
:10180A008B31200043088400440885001200031D20
:10181A000F2C102CFE2BBE01BF010800F100053071
:10182A0020006006031D1A2C1B2C1E2CE00101301F
:10183A002F2C6008E43E8600870101087106031D0B
:10184A00272C282C2D2C0130F0007008E0072E2CB4
:10185A00E001003008002000CB004730CA004B08E6
:10186A00CC00CE01CF01D501D6014608BF004508FC
:10187A00BE004A30C0004C308B31F7238C31200037
:10188A004E084B07C90049088600870181010800F4
:10189A002000AD01AE01602C2A082D0784002B0818
:1018AA002E3D850000088B3193238C3101302000B6
:1018BA00AD070030AE3D2A082D0784002B082E3DC7
:1018CA0085001200031D6A2C6B2C512C08000B1189
:1018DA0020006508950001302100C0070030C13D95
:1018EA00003041020A3003194002031C7D2C7E2C71
:1018FA008C2C420843040319832C842C892C43081A
:10190A008A0042080A008C312100C001C101080086
:10191A0006302100AD000330AC0089311A218C3128
:10192A0021002D08F400F501F435F50D6130740736
:10193A0084001030753D80388500013F8A00003FE1
:10194A000A008C312100AD004B088A004A080A00BF
:10195A008C3108008931BA218C318F314A278C3178
:10196A008A310D228C318C31FB248C318B31152339
:10197A008C318931F8218C318A3118228C318B31A2
:10198A0029238C318B31DC238C318A31EE228C3144
:10199A008B3152238C318A312F228C31080020005E
:1019AA00AB00EF2C2A08BF3E8B317D238C31FA2CF9
:1019BA002A08933E8B317D238C31FA2C2A08D33E98
:1019CA008B317D238C31FA2C2A087F3E8B317D2383
:1019DA008C31FA2C2B08023A0319D72C013A031935
:1019EA00DD2C073A0319E32CE92C08002100901298
:1019FA0003302000A4000630A5008A3174228C31FD
:101A0A00483023009F0090309D0026309E006730AA
:101A1A009B009C0115302000A4000930A5008A31E2
:101A2A0056228C3135302000A4000930A5008A31B5
:101A3A0065228C312100B601B701FD012000E401C5
:101A4A00E301210090160800210025082604031945
:101A5A002F2D302D462D0130A5020030A63B24083B
:101A6A00F2002308F100A30A0319A40A71088600E8
:101A7A00720887000108893161218D310330F30032
:101A8A00562D2B0803194A2D4B2D522DAB018931A6
:101A9A002C218D31F301F30A562D8931AA218D317A
:101AAA00F300730808000430F100893145218D31B3
:101ABA00003A0319612D622D932D210029082A0469
:101ACA000319682D692D802D893123218D31F0006C
:101ADA000730A03E86008701403F8400413F8500D1
:101AEA007008800001302100A7070030A83D0130AE
:101AFA00A9020030AA3B29082A040319852D862D3C
:101B0A008A2D893141218D31962D893129218D31B5
:101B1A00893149218D310730F100962D89312621ED
:101B2A008D3171080800FA007A088C3113248D313E
:101B3A00003A031DA12DA22DA32DD82D2000E801C6
:101B4A007A088A3192228D317A08853186258D313B
:101B5A007A088731C2278D317A0A031DB52DB62D31
:101B6A00D02D2000E801E80A5E30E6000130E700E7
:101B7A002A30F0000030F1008A31DB228D319630B4
:101B8A008D31D9258D3120006708F1006608F000F3
:101B9A008A31C8228D310730F9007D30890BD32D67
:101BAA00F90BD32D00000800F300F4010130F00016
:101BBA00740AE02DF035890BDF2D70087305F100EA
:101BCA00740AE82DF136890BE72D7108F200F20E3E
:101BDA0022000D087206EF3972068D00C8300032F5
:101BEA00890BF42D22000D17C8300032890BFA2D0B
:101BFA0022000D160D13C8300032890B012E013058
:101C0A00F0007008F40708307402031C0D2E0E2E23
:101C1A00DB2D22008D16C8300032890B112E2200CE
:101C2A008D12C8300032890B172E080089311D2108
:101C3A008E3189319B218E31003A0319252E262EA9
:101C4A00342E893181218E31003A03192D2E2E2E00
:101C5A00342E05302100AD000130AC00492E893107
:101C6A0066218E31003A03193B2E3C2E492E8931CA
:101C7A0081218E31003A0319432E442E492E053014
:101C8A002100AD000230AC0021002D08F400F5015E
:101C9A00F435F50D6130740784001030753D8038D5
:101CAA008500013F8A00003F0A008E312100AD0005
:101CBA0008002000A700A8010130A400280A662E07
:101CCA00A435890B652E24082705A500280A6E2E3F
:101CDA00A536890B6D2E2508A600A60E22000D0832
:101CEA0020002606EF39260622008D00C830003271
:101CFA00890B7C2E22000D17C8300032890B822EE8
:101D0A0022000D160D13C8300032890B892E0130BE
:101D1A002000A4002408A80708302802031C962ED5
:101D2A00972E612E22008D16C8300032890B9A2E0A
:101D3A0022008D12C8300032890BA02E0800200024
:101D4A0026080319A92EAA2EAF2E2608031DAE2E89
:101D5A00AF2EB42E2408803103208E31F52E2608AA
:101D6A00093E86008701160001040319BD2EBE2E06
:101D7A00DC2E2608093E86008701403FA700413F26
:101D8A00A8002608023E86008701403FA900413F7D
:101D9A00AA002A08803AAB002808803A2B02031DC1
:101DAA00D82E270829020318DB2EDC2EF52E200058
:101DBA002608860087012608023E8400850100085D
:101DCA000107A70027088600870124088100260842
:101DDA00023E860087010130810741310318810ADA
:101DEA0008002000AA01A71FFB2EFC2E032FA6091C
:101DFA00A709A60A0319A70AAA01AA0AA51F062F54
:101E0A00072F0C2FA409A509A40A0319A50A240857
:101E1A0025040319112F122F3B2FA901A90A1E2FDE
:101E2A000130A435A50D890B162F0130A80028080A
:101E3A00A907A51F212F222F152F25082702031DC9
:101E4A00282F24082602031C2B2F2C2F302F24087E
:101E5A00A6022508A73B0130A536A40C890B312F11
:101E6A000130A902031D3A2F3B2F222F2A080319FA
:101E7A003F2F402F452FA609A709A60A0319A70A2B
:101E8A002708A5002608A400080022008C018D015D
:101E9A0018308E00193021008C0080308D009B3064
:101EAA008E00153023008C008D0101308E003A30EF
:101EBA0024008C00F0308D00DF308E002100951355
:101ECA0025008C018D018E01363026008C00F03001
:101EDA008D00FF308E00183027008C00F0308D0006
:101EEA0007308E0017303C00A40012303D00A600D7
:101EFA0014303C00A00010303D00A40013303C0018
:101F0A00A10011303D00A30002303C0095000D30C5
:101F1A003D00920015303C0094000C303D00A500B5
:101F2A00270091019201930194019501960197016D
:101F3A009801990108002000AA01A51FA52FA62F24
:101F4A00AD2FA409A509A40A0319A50AAA01AA0A78
:101F5A00A71FB02FB12FBA2FA609A709A60A0319DE
:101F6A00A70A0130A8002808AA06AB01AC01240878
:101F7A0025040319C12FC22FF12FA901A90ACE2FB7
:101F8A000130A435A50D890BC62F0130A8002808F9
:101F9A00A907A51FD12FD22FC52F0130AB35AC0D04
:101FAA00890BD32F25082702031DDD2F24082602BB
:101FBA00031CE02FE12FE62F2408A6022508A73BE1
:101FCA002B140130A536A40C890BE72F0130A90286
:101FDA00031DF02FF12FD22F2A080319F52FF62F00
:101FEA00FB2FAB09AC09AB0A0319AC0A2C08A500F4
:101FFA002B08A4000800FB340C34003400340034ED
:10200A0000346B34093400340034003400340034B2
:10201A000034003400340034003400340034003416
:10202A000034003400340034003400340034003406
:10203A000034003400340034003400340034743482
:10204A000A340034003456340A3465340A3400340D
:10205A00003400340034EE340A34003400340034DE
:10206A00003400340034D4340934003400344D349C
:10207A0061347334743465347234203443346134D3
:10208A006D347034203432343034323434340034E1
:10209A0015340B3400340034003400340034003476
:1020AA000034003400340034003400340034003486
:1020BA0083340A34003400344D340934A2340934E8
:1020CA008D34093429340D3458340D3475340934B7
:1020DA007B340934AA340934943409344F347534BE
:1020EA00743420346F3466342034523461346E349C
:1020FA0067346534003444346934733474342E34A8
:10210A003A34203425346434203463346D34003452
:10211A0052340B34003400340034003400340034B8
:10212A00DD34093400340034DC340B342F34093400
:10213A003234093400340034CB34093400340034E6
:10214A0029340B34003400340034003400340034B1
:08215A00E634093400340034BE
:020000040001F9
:06000E007C3FFF3E9F3F16
:00000001FF
