:1000000080314128080008347E1480310B1F0928F4
:100010000A283F282100901D0E280F2817282000AD
:10002000901D1328142817289C3159248031210051
:10003000901E1B281C2827282000901E20282128DD
:10004000272823003B088A003A080A008031210053
:10005000911D2B282C2834282000911D3028312870
:1000600034289C31552480318B1E372838283F286E
:100070000B1D3B283C283F289031002080317E100A
:100080000900803143282200803103208031EC00B8
:1000900070308400233085008030FE000030FF0087
:1000A0009D313B258031473084000130850025306B
:1000B000FE000030FF009D313B258031A0308400E0
:1000C000013085001E30FE000030FF009D313B25D1
:1000D000803120308400023085005030FE00003036
:1000E000FF009D313B258031A03084000230850027
:1000F0004030FE000030FF009D313B2580317E10F6
:1001000020009531C22D2100B800CB012308D10079
:100110002208D0002108CF002008CE00510820007E
:10012000C300210050082000C20021004F08200019
:10013000C10021004E082000C0000030C700003080
:10014000C6000030C5000030C40094318C248031DA
:100150000318AB28AC28C3282100CB01CB0A5108D7
:10016000F3005008F2004F08F1004E08F0009C31F7
:10017000F524803173082100D1007208D000710885
:10018000CF007008CE002100CC01CD01220056081E
:100190002100BC00220055082100BB004B080319B8
:1001A000D228D328E3284B08031DD728D828DD28D8
:1001B0002B30AF000030B000E1282D30AF00003010
:1001C000B0002F08CB005108F3005008F2004F0890
:1001D000F1004E08F00093318C23803170037104DC
:1001E000031DF328F4281F2921004B080319F928BF
:1001F000FA2806294B082400A000FF302100BB0785
:10020000FF30BC3D0130CC000030CD00E030F000CC
:100210009830F1004C08203E9E3178268031FD3028
:100220002100BB07FF30BC3D2030FB003C08FD0037
:100230003B08FC0038089031A5208031A82E210011
:100240005108F3005008F2004F08F1004E08F0008A
:1002500093318C23803170087104031D30293129BA
:100260005C2921004B0803193629372943294B08FB
:100270002400A000FF302100BB07FF30BC3D01304F
:10028000CC000030CD00E430F0009830F1004C0894
:10029000203E9E3178268031FD302100BB07FF30A3
:1002A000BC3D2030FB003C08FD003B08FC0038084A
:1002B0009031A5208031A82E3F302100D50080301C
:1002C000D4000030D3000030D200B901BA01510887
:1002D000F3005008F2004F08F1004E08F000003023
:1002E000F7000030F6000030F5000030F4009131E6
:1002F0009F21803103187D297E29BA2A8C2921006B
:100300004008D5003F08D4003E08D3003D08D20085
:100310000130B9070030BA3D41302000A90020303B
:10032000A8000030A7000030A600210055082000DA
:10033000AD00210054082000AC002100530820002B
:10034000AB00210052082000AA008D31C525803164
:10035000200029082100C000200028082100BF003B
:10036000200027082100BE00200026082100BD0033
:100370003D084E02A5003E084F3BA6003F08503BFB
:10038000A7004008513BA8002808F3002708F20006
:100390002608F1002508F0009D31DA258031F31B95
:1003A000DF297308031DE0297208031DE029710885
:1003B000031DE02902307002031CDF29E0297F2998
:1003C000210040082000C30021003F082000C20097
:1003D00021003E082000C10021003D082000C0008F
:1003E000210051082000C700210050082000C6004D
:1003F00021004F082000C50021004E082000C40045
:1004000094318C248031031C062A072A7F2921007D
:1004100052084E02A50053084F3BA6005408503B1B
:10042000A7005508513BA8002808F3002708F20050
:100430002608F1002508F0009D31DA258031F31BF4
:10044000302A7308031D2F2A7208031D2F2A7108F2
:10045000031D2F2A0230700203182F2A302A932AF4
:1004600021005508D1005408D0005308CF0052088D
:10047000CE00BA2A41302000C3002030C200003034
:10048000C1000030C000210055082000C700210035
:1004900054082000C600210053082000C500210098
:1004A00052082000C40088315720803120004308C2
:1004B0002100D500200042082100D400200041087E
:1004C0002100D300200040082100D200FF30B907EE
:1004D000FF30BA3D52084E02A50053084F3BA6001C
:1004E0005408503BA7005508513BA8002808F300CA
:1004F0002708F2002608F1002508F0009D31DA25D2
:100500008031F31B922A7308031D912A7208031D80
:10051000912A7108031D912A023070020318912A52
:10052000922A932A302A210051082000C30021007A
:1005300050082000C20021004F082000C100210007
:100540004E082000C000210055082000C7002100EF
:1005500054082000C600210053082000C5002100D7
:1005600052082000C40094318C248031031CB92A25
:10057000BA2A3A2A21002408B2003208B300220025
:10058000D81BC32AC42ACC2A58082100AC00220058
:1005900057082100AB00D12A06302100AB00003003
:1005A000AC002C08B7002B08B6000130B6070030AD
:1005B000B73D66303306031DDE2ADF2AF72ABA1F4D
:1005C000E22AE32AED2A3F30D5008030D400003003
:1005D000D3000030D200B901BA01673032060319E6
:1005E000F22AF32AF72A3908B6073A08B73DC101BB
:1005F000C2015108C6005008C5004F08C4004E088B
:10060000C3005508C0005408BF005308BE0052087C
:10061000BD00D72B210055082000C300210054083D
:100620002000C200210053082000C1002100520810
:100630002000C000210046082000C7002100450816
:100640002000C600210044082000C5002100430806
:100650002000C40088315720803120004308DD008D
:100660004208DC004108DB004008DA008631A92698
:10067000803120005D082100CA0020005C082100B4
:10068000C90020005B082100C80020005A08210092
:10069000C7004A08F3004908F2004808F10047087B
:1006A000F0009231A422803171082100B500700859
:1006B000B40055082000AD00210054082000AC0013
:1006C000210053082000AB00210052082000AA009E
:1006D00021004A082000A900210049082000A800A4
:1006E000210048082000A700210047082000A6009C
:1006F0008D31C525803120002908C3002808C2009B
:100700002708C1002608C000210046082000C700B5
:10071000210045082000C600210044082000C50033
:10072000210043082000C4009E31EA2680312000C9
:1007300043082100C600200042082100C500200017
:1007400041082100C400200040082100C3004130BE
:100750002000C3002030C2000030C1000030C000C3
:10076000210055082000C700210054082000C600C1
:10077000210053082000C500210052082000C400B9
:10078000883157208031200043082100D500200007
:1007900042082100D400200041082100D30020009D
:1007A00040082100D2000130C1070030C23D42089C
:1007B000803AA5003708803A2502031DE12B360850
:1007C0004102031CE42BE52B0A2B40302000A9003A
:1007D000A030A8000030A7000030A6002100550876
:1007E0002000AD00210054082000AC002100530877
:1007F0002000AB00210052082000AA008D31C52541
:100800008031200029082100CA002000280821008A
:10081000C900200027082100C80020002608210068
:10082000C70046082000C300210045082000C20080
:10083000210044082000C100210043082000C0001E
:1008400021004A082000C700210049082000C600F6
:10085000210048082000C500210047082000C400EE
:1008600094318C2480310318362C372C412C0030E5
:100870002100CA000030C9000030C8000030C700A5
:10088000662C21004608F3004508F2004408F100F8
:100890004308F0004A08F7004908F6004808F50048
:1008A0004708F40091319F218031031C582C592CAA
:1008B000662C210034185D2C5E2C662C0030CA009A
:1008C0000030C9000030C8000030C70021004A08CD
:1008D000F3004908F2004808F1004708F000510809
:1008E000F7005008F6004F08F5004E08F4008B3171
:1008F000B923803173082100C6007208C500710851
:10090000C4007008C30046082000C3002100450849
:100910002000C200210044082000C100210043083B
:100920002000C0004130A9002030A8000030A700FE
:100930000030A600210040082000AD0021003F0843
:100940002000AC0021003E082000AB0021003D0843
:100950002000AA008D31C525803120002908C7005C
:100960002808C6002708C5002608C40094318C2436
:100970008031031CBC2CBD2CF82C01302100B907A0
:100980000030BA3D41302000A9002030A8000030DE
:10099000A7000030A600210040082000AD00210083
:1009A0003F082000AC0021003E082000AB002100E1
:1009B0003D082000AA008D31C5258031200029087E
:1009C0002100C000200028082100BF0020002708C7
:1009D0002100BE00200026082100BD00663033063D
:1009E000031DF32CF42CF82C0130B6070030B73D72
:1009F00021004008D5003F08D4003E08D3003D0840
:100A0000D2003A08AA003908A900B101AD01AE012F
:100A1000C101C201402E210055082000C300210061
:100A200054082000C200210053082000C10021000A
:100A300052082000C000210046082000C700210005
:100A400045082000C600210044082000C500210000
:100A500043082000C400883157208031200043081B
:100A6000DD004208DC004108DB004008DA00863186
:100A7000A926803120005D082100CA0020005C0802
:100A80002100C90020005B082100C80020005A088E
:100A90002100C7004A08F3004908F2004808F100A5
:100AA0004708F0009231A42280317108803A210079
:100AB000A50080302502031D5F2D0A307002031847
:100AC000622D632D752D21004A08F3004908F200BC
:100AD0004808F1004708F0009231A42280317108E3
:100AE0002100B5007008B4007A2D09302100B4004F
:100AF0000030B5003108031D7E2D7F2DA82DAA1FC3
:100B0000822D832DA82D4C08203E860002308700C0
:100B10002E3081000130CC070030CD3DFF30BB07C7
:100B2000FF30BC3DB101B10AA82D4C08203E860023
:100B300002308700303081000130CC070030CD3DDD
:100B4000FF30BB07FF30BC3DFF30AD07FF30AE3D8F
:100B50002D082E04031DAD2DAE2D952D4C08203EE5
:100B60008600023087003408303E81000130CC0717
:100B70000030CD3DFF30BB07FF30BC3D55082000A5
:100B8000AD00210054082000AC00210053082000D3
:100B9000AB00210052082000AA0021004A082000D2
:100BA000A900210049082000A800210048082000D1
:100BB000A700210047082000A6008D31C5258031FF
:100BC00020002908C3002808C2002708C100260801
:100BD000C000210046082000C70021004508200071
:100BE000C600210044082000C50021004308200061
:100BF000C4009E31EA268031200043082100C6004F
:100C0000200042082100C500200041082100C40046
:100C1000200040082100C30041302000C3002030E4
:100C2000C2000030C1000030C00021005508200083
:100C3000C700210054082000C600210053082000EE
:100C4000C500210052082000C4008831572080319F
:100C5000200043082100D500200042082100D400D4
:100C6000200041082100D300200040082100D200CC
:100C7000FF30A907FF30AA3D0130C1070030C23D57
:100C80004208803AA5003708803A2502031D4A2E03
:100C90003608410203184D2E4E2E5C2E21004D08C1
:100CA000803AA50080302502031D582E4B304C029F
:100CB000031C5B2E5C2E0B2D4F302100C100003039
:100CC000C2004108203E86000230870081012030AA
:100CD000F0004D08F2004C08F1002030A5004C084F
:100CE0002502410790312220803121004C08410229
:100CF000CC004D08423BCD004B08031D802E822EB8
:100D00000130832E0030A500A6012508C100260869
:100D1000C2004B0803198D2E8E2E992EFF30CC0762
:100D2000FF30CD3D4C08203E8600023087004B0846
:100D300081004108BB024208BC3B4C08203EFB003E
:100D40003C08FD003B08FC0038089031A5208031AC
:100D50000800230023082000ED00230022082000C3
:100D6000EC00230021082000EB00230020082000D5
:100D7000EA005D08ED005C08EC005B08EB005A0837
:100D8000EA006A08DE006B08DF006C08E0006D080E
:100D9000E1001730E136E00CDF0CDE0C890BCA2EC7
:100DA000FF305E05E20000305F05E3006208813E2F
:100DB000E800FF30633DE9006908803ADE008030DA
:100DC0005E02031DE52E17306802031CE82EE92E93
:100DD000EA2E932F2000E91BEE2EEF2E4C2FFF3032
:100DE000DE00FF30DF007F30E0000030E100680A05
:100DF000FD2EE137E00CDF0CDE0C890BF92E6108CB
:100E0000E7006008E6005F08E5005E08E4006A08A5
:100E10006405DE006B086505DF006C086605E00010
:100E20006D086705E100610860045F045E04031D4E
:100E30001A2F1B2F1C2FE92E6A08DE006B08DF001B
:100E40006C08E0006D08E1001F30E136E00CDF0CBB
:100E5000DE0C890B252F610860045F045E04031912
:100E6000322F332F3B2F6408EA076508EB3D6608F5
:100E7000EC3D6708ED3D6409DE006509DF006609A9
:100E8000E0006709E1005E08EA055F08EB0560081D
:100E9000EC056108ED058B2F6A08DE006B08DF00AA
:100EA0006C08E0006D08E1001F30E136E00CDF0C5B
:100EB000DE0C890B552F610860045F045E04031D7E
:100EC000622F632F6C2F0030ED000030EC000030FB
:100ED000EB000030EA008B2F6A08DE006B08DF00B1
:100EE0006C08E0006D08E1000130DE35DF0DE00D3B
:100EF000E10D890B752F610860045F045E0403191E
:100F0000822F832F8B2FBF30ED008030EC0000301C
:100F1000EB000030EA006D08DD006C08DC006B08B7
:100F2000DB006A08DA0008002200BF009C31D024F0
:100F30008731F601F60A01309F31DA2787319C317B
:100F4000B0248731D730F6009830F7009E31AE26B6
:100F50008731F601F60A02309F31DA2787318F3068
:100F6000F6009830F7009E31AE268731023022001D
:100F7000AE00C730AD008830890BBC2FAD0BBC2F45
:100F8000AE0BBC2F00009C31D0248731F601F60A4D
:100F900001309F31DA2787313C302100E900983059
:100FA000EA0022003F08AD00AE012D082100EB0051
:100FB00022002E082100EC002F309F312A27873194
:100FC0002F30F6000130F7009E31AE268731023017
:100FD0002200AE00C730AD008830890BED2FAD0B7D
:100FE000ED2FAE0BED2F000008008F3025009A008A
:100FF0009901183098001E08F33904389E00080043
:1010000072080319042805280A287208031D0928F4
:101010000A280F2870089C311A2488315628720833
:10102000093E8600013087001600010403191928C3
:101030001A283A287208093E860001308700403F8E
:10104000F300413FF4007208023E86000130870041
:10105000403FF500413FF6007608803AF7007408FB
:10106000803A7702031D3628730875020318392861
:101070003A28562872088600013087007208023E1E
:1010800084000130850000080107F3007308860022
:1010900001308700700881007208023E860001302E
:1010A00087000130810741310318810A08002000C0
:1010B00047088039D1004735D800C61F602861280D
:1010C0006228581458080319662867287728580A90
:1010D000031D6B286C2874280030C7000030C60040
:1010E0000030C5000030C400C617C7017F2800309B
:1010F000C7000030C6000030C5000030C4004308FF
:101100008039C8004808D1064335D900C21F892854
:101110008A288B285914590803198F289028A02849
:10112000590A031D942895289D280030C3000030DB
:10113000C2000030C1000030C000C217C301A8289F
:101140000030C3000030C2000030C1000030C000D9
:101150004308420441044004031DAF28B028C928B5
:101160000030C7000030C6000030C5000030C400A9
:101170008030C6047F30C7045108C8004808C7043F
:101180004708C3004608C2004508C1004408C00023
:10119000002A5808031DCD28CE28D7280030C300C8
:1011A0000030C2000030C1000030C000002A5808E2
:1011B000C800C9014908CB0059084802CA00031CED
:1011C000CB034A087F3ED20000304B3DD300470896
:1011D000D0004608CF004508CE004408CD000030BE
:1011E000C7000030C6000030C5000030C400003029
:1011F000D7000030D6000030D5000030D400D9012F
:101200003F29590803190529062920290130CD3520
:10121000CE0DCF0DD00D890B07290130C435C50D7A
:10122000C60DC70D890B0E29D71F17291829192993
:1012300044140130D435D50DD60DD70D890B1A299C
:1012400043085002031D2E2942084F02031D2E2978
:1012500041084E02031D2E2940084D02031C31296E
:1012600032293B2957174008CD024108CE3B42089E
:10127000CF3B4308D03B0130C8004808D9071A309B
:101280005902031C44294529012950084F044E04E2
:101290004D0403194C294D2966295414662901303F
:1012A000C435C50DC60DC70D890B5029D71F592947
:1012B0005A295B2944140130D435D50DD60DD70DEC
:1012C000890B5C29FF30D207FF30D33DC61F692947
:1012D0006A294F29D901D71F6E296F298B29FF3021
:1012E0005405C800FF305505C900FF305605CA0037
:1012F0007F305705CB004B084A04490448040319C2
:10130000822983298629D901D90A8B29441C892954
:101310008A298B298329590803198F299029B829EB
:101320000130C4070030C53D0030C63D0030C73D28
:10133000471C9B299C29B8294408C8004508C900B6
:101340004608CA004708CB000130CC00CB37CA0C96
:10135000C90CC80CCC0BA6294B08C7004A08C6000C
:101360004908C5004808C4000130D2070030D33D09
:101370005308803AC80080304802031DC129FF305D
:101380005202031CC429C529D229FF302000D200F3
:101390000030D3000030C7000030C6000030C50068
:1013A0000030C40020005308803AC8008030480252
:1013B000031DDC29013052020318DF29E029EC2942
:1013C0002000D201D3010030C7000030C600003039
:1013D000C5000030C400D10120005208D800581CBC
:1013E000F229F329F529C617F9297F30C8004808E2
:1013F000C6055836C7005108C8004808C704C028A9
:1014000008009C31D0248A31F601F60A01309F3160
:10141000DA278A319C31B0248A31CE30F6009830F8
:10142000F7009E31AE268A31F601F60A02309F316E
:10143000DA278A318F30F6009830F7009E31AE26D9
:101440008A3106302200AE001330AD00AD30890B7A
:10145000272AAD0B272AAE0B272A0032200097013E
:10146000960122000E150330890B342A0000220059
:101470000E1120008E1C3D2A3E2A392A9C3133242D
:101480008A3120008E18452A462A412A9C3136246A
:101490008A3142302000C3006B30C2004730C100A7
:1014A000AE30C00016082200AD00AE0120001708C3
:1014B0002200AF00B0012F08B000AF012D082F07A8
:1014C000F4002E08303DF500F601F51BF603760812
:1014D000F7000130953117258A3177082000C700C1
:1014E0007608C6007508C5007408C4008831572006
:1014F0008A31200043082300AF0020004208230067
:10150000AE00200041082300AD0020004008230069
:10151000AC002F082000C30023002E082000C200CA
:1015200023002D082000C10023002C082000C0004B
:101530004030C7000030C6000030C5000030C40095
:1015400094318C248A31031CA62AA72AF12A43301D
:101550002000C300C830C2000030C1000030C0000D
:1015600023002F082000C70023002E082000C600FB
:1015700023002D082000C50023002C082000C400F3
:1015800094318C248A31031CC62AC72AF12A9C3143
:10159000D0248A31F601F60A01309F31DA278A31E8
:1015A00072302100E9009830EA0023002F08210062
:1015B000EE0023002E082100ED0023002D0821005D
:1015C000EC0023002C082100EB0033309F312A2748
:1015D0008A313330F6000130F7009E31AE268A3171
:1015E000012B9C31D0248A31F601F60A01309F315B
:1015F000DA278A319D30F6009830F7009E31AE260A
:101600008A3144302000C3007F30C200C030C100A6
:101610000030C0004030A9005330A8003330A7008C
:101620003330A60000309E315E268A31FF307005CF
:101630002200AD0003307105AE002D08AF002E086A
:10164000B000B101B2013208F7003108F6003008ED
:10165000F5002F08F4000030953117258A317708FE
:101660002000AD007608AC007508AB007408AA0035
:101670008D31C5258A3120002908C7002808C600F9
:101680002708C5002608C400883157208A31200069
:1016900043082200C600200042082200C5002000A6
:1016A00041082200C400200040082200C30042304C
:1016B0002000A900C830A8000030A7000030A60014
:1016C000220046082000AD00220045082000AC00A2
:1016D000220044082000AB00220043082000AA009A
:1016E0008D31C5258A31200029082300AB00200058
:1016F00028082300AA00200027082300A9002000B2
:1017000026082300A80021001D10F601F60A023069
:101710009F31DA278A3181302100E9009830EA00D0
:1017200023002B082100EE0023002A082100ED00F1
:10173000230029082100EC00230028082100EB00E9
:1017400033309F312A278A313330F6000130F700D9
:101750009E31AE268A3106302200AE001330AD0035
:10176000AD30890BB12BAD0BB12BAE0BB12B0032D1
:10177000080073088039F8007335FA00F21FC12B96
:10178000C22BC32B7A147A080319C72BC82BD82B6A
:101790007A0A031DCC2BCD2BD52B0030F300003063
:1017A000F2000030F1000030F000F217F301E02BFE
:1017B0000030F3000030F2000030F1000030F000A3
:1017C00077088039F900790878060319E82BE92BA6
:1017D000EA2B78177735F900F61FEF2BF02BF12B5A
:1017E000791479080319F52BF62B062C790A031DB9
:1017F000FA2BFB2B032C0030F7000030F6000030F2
:10180000F5000030F400F617F7010E2C0030F70059
:101810000030F6000030F5000030F4007A0879025C
:101820000318132C142C3B2C781F172C182C1D2C50
:1018300080302000A0002008F8067A08FB00790814
:10184000FA007B08F9007008FB007408F0007B08C0
:10185000F4007108FB007508F1007B08F5007208C0
:10186000FB007608F2007B08F6007308FB0077089F
:10187000F3007B08F700FB0179082000A000A1011C
:101880002108A3007A082002A200031CA303230856
:10189000803AA40080302402031D502C1A3022020A
:1018A000031C532C542C862C73087204710470048E
:1018B000031D5B2C5D2C01305E2C0030FB000030E2
:1018C000F3000030F2000030F1000030F000790841
:1018D000FA008C2C7B1C6D2C6E2C722C7B36013804
:1018E000FB00742C0310FB0C701C772C782C792CCB
:1018F000FB1701302000A000F337F20CF10CF00CC4
:10190000A00B7C2C0130A0002008FA0779087A028D
:10191000031C8B2C8C2C6A2C781B8F2C902CC72CA6
:101920007A08031D942C952C9E2C0030F300003077
:10193000F2000030F1000030F000C42D7408F00710
:101940007508F13D7608F23D7708F33D731CA92C2C
:10195000AA2C542D7B1CAD2CAE2CB22C7B3601381E
:10196000FB00B42C0310FB0C701CB72CB82CB92C4A
:10197000FB1701302000A000F337F20CF10CF00C43
:10198000A00BBC2C0130A0002008FA07542D7308CE
:10199000803A2000A0007708803A2002031DDA2C4C
:1019A00076087202031DDA2C75087102031DDA2C09
:1019B000740870020318DD2CDE2C162DFF30A000F9
:1019C000FF30A100FF30A200FF30A30070087402B6
:1019D000A4007108753BA5007208763BA600730849
:1019E000773BA7002408A0072508A13D2608A23DB3
:1019F0002708A33D2308F3002208F2002108F10084
:101A00002008F0008030A0002008F806FB09FB0A3F
:101A10007B08031D0C2D0D2D1E2D0130F00700300D
:101A2000F13D0030F23D0030F33D1E2D7408F00210
:101A30007508F13B7608F23B7708F33B73087204B4
:101A400071047004031D252D262D502D7B08031DC8
:101A50002A2D2B2D502D0030F3000030F2000030E5
:101A6000F1000030F000C42D0130F035F10DF20D21
:101A7000F30D890B352DFB1F3E2D3F2D402D70148E
:101A80007B1C432D442D472D0314FB0D492D0310C2
:101A9000FB0D7A0803194D2D4E2D502D0130FA0201
:101AA000F21F532D542D342DF901FB1F582D592DA4
:101AB000672D7B087F3903195E2D5F2D622DF9019B
:101AC000F90A672D701C652D662D672D5F2D79082D
:101AD00003196B2D6C2D9A2D0130F0070030F13D6C
:101AE0000030F23D0030F33D731C772D782D9A2D98
:101AF00070082000A0007108A1007208A2007308FD
:101B0000A3000130A400A337A20CA10CA00CA40BCD
:101B1000832D2308F3002208F2002108F100200899
:101B2000F0007A0A0319952D962D9A2D0130A00008
:101B30002008FA077A0A03199E2D9F2DA42D7A08F2
:101B4000031DA32DA42DB22D0030F3000030F200B0
:101B50000030F1000030F0007A08031DB02DB12DE7
:101B6000B22DF8017A1CB52DB62DB82DF217BD2D6A
:101B70007F302000A0002008F2057A36F300F81F1D
:101B8000C22DC32DC42DF317080020002908803969
:101B9000B3002935B900A81FCE2DCF2DD02D391473
:101BA00039080319D42DD52DE42D390A031DD92D5B
:101BB000DA2DE22D0030A9000030A8000030A70087
:101BC0000030A600A817EC2D0030A9000030A800B6
:101BD0000030A7000030A6002D088039AE002E0886
:101BE000B3062D35B800AC1FF62DF72DF82D38149F
:101BF00038080319FC2DFD2D0C2E380A031D012E6B
:101C0000022E0A2E0030AD000030AC000030AB00D8
:101C10000030AA00AC17142E0030AD000030AC002C
:101C20000030AB000030AA0038080319182E192E16
:101C30001E2E3908031D1D2E1E2E272E0030A90032
:101C40000030A8000030A7000030A600FF2F2608B3
:101C5000F0002C089F314A278D3171082000BF0009
:101C60007008BE003E08AE00AF01B001B1013108FE
:101C7000B7003008B6002F08B5002E08B4003F08A2
:101C8000AE00AF01B001B1013108BD003008BC00A9
:101C90002F08BB002E08BA002708F0002B089F3140
:101CA0004A278D3171082000BF007008BE003E0831
:101CB000AE00AF01B001B1012E08B4072F08B53D49
:101CC0003008B63D3108B73D3F08AE00AF01B00166
:101CD000B1012E08BA072F08BB3D3008BC3D3108C2
:101CE000BD3D2808F0002A089F314A278D31710830
:101CF0002000BF007008BE003E08AE00AF01B0017A
:101D0000B1012E08B4072F08B53D3008B63D3108A3
:101D1000B73D3F08AE00AF01B001B1012E08BA07D0
:101D20002F08BB3D3008BC3D3108BD3D0830B435FF
:101D3000B50DB60DB70D890B972E2708F0002A08B0
:101D40009F314A278D3171082000BF007008BE0006
:101D50003E08B4073F08B53D0030B63DB73D260804
:101D6000F0002B089F314A278D3171082000BF00F9
:101D70007008BE003E08B4073F08B53D0030B63DD0
:101D8000B73D0830B435B50DB60DB70D890BC22E71
:101D90002608F0002A089F314A278D31710820005B
:101DA000BF007008BE003E08B4073F08B53D0030D4
:101DB000B63DB73D2708F0002C089F314A278D31EA
:101DC00071082000BF007008BE003E08BA073F0837
:101DD000BB3D0030BC3DBD3D2808F0002B089F31C5
:101DE0004A278D3171082000BF007008BE003E08F0
:101DF000BA073F08BB3D0030BC3DBD3D2808F000A0
:101E00002C089F314A278D3171082000BF007008CF
:101E1000BE003E08AE003F08AF00B001B10108307F
:101E2000AE35AF0DB00DB10D890B102F2E08BA07CE
:101E30002F08BB3D3008BC3D3108BD3D3408AE0025
:101E40003508AF003608B0003708B1001830B13699
:101E5000B00CAF0CAE0C890B272F2E08BA072F0839
:101E6000BB3D3008BC3D3108BD3D0830B435B50D33
:101E7000B60DB70D890B362F39083807AE00AF0104
:101E8000AF0D2E08823EBE00FF302F3DBF005F2FFA
:101E90000130BA35BB0DBC0DBD0D890B492FB71FE5
:101EA000522F532F542F3A140130B435B50DB60DBF
:101EB000B70D890B552FFF30BE07FF30BF3DBC1F4C
:101EC000622F632F482FB801B71F672F682F842F09
:101ED000FF303405AE00FF303505AF00FF3036056A
:101EE000B0007F303705B100310830042F042E04D4
:101EF00003197B2F7C2F7F2FB801B80A842F3A1C3F
:101F0000822F832F842F7C2F38080319882F892F45
:101F1000B12F0130BA070030BB3D0030BC3D00306E
:101F2000BD3D3D1C942F952FB12F3A08AE003B08C4
:101F3000AF003C08B0003D08B1000130B200B1373D
:101F4000B00CAF0CAE0CB20B9F2F3108BD003008A7
:101F5000BC002F08BB002E08BA000130BE070030BD
:101F6000BF3D3F08803AAE0080302E02031DBA2FDD
:101F7000FF303E02031CBD2FBE2FC82F7F30200034
:101F8000BD008030BC000030BB000030BA00F32F31
:101F900020003F08803AAE0080302E02031DD22F71
:101FA00001303E020318D52FD62FE12F003020003C
:101FB000BD000030BC000030BB000030BA00B301EF
:101FC000F32F20003E08B900FF30BA05FF30BB05F3
:101FD0007F30BC050030BD05391CEF2FF02FF12FED
:101FE000BC173936BD003308AE002E08BD043D08CD
:101FF000A9003C08A8003B08A7003A08A600080072
:102000000B1122006B082000950001302200DF0731
:102010000030E03D00306002643003195F02031CB1
:102020001228132821286108620403191828192886
:102030001E2862088A0061080A0090312200DF0130
:10204000E0010800F5007008F7007508F6003C286C
:1020500077088600023087000108F4000130F300A1
:102060007308F7077608860002308700740881003D
:102070000130F3007308F6070130F1020030F23B43
:10208000710A031D4728720A031D4728482828287B
:1020900008002100901214302300BE001330BF004E
:1020A0009D3117259031483023009F0090309D00CE
:1020B00026309E0067309B009C011930BE001C300A
:1020C000BF009D314725903139302300BE001C30C0
:1020D000BF009D31562590312300B001B10122008F
:1020E000EA01E901E80121009016080022004C08ED
:1020F0004D0403197C287D2893280130CC02003040
:10210000CD3B4B08F2004A08F100CA0A0319CB0A7A
:10211000710886007208870001089C3161249031A3
:102120000330F300A32852080319972898289F2802
:10213000D2019C3130249031F301F30AA3289C3161
:10214000C0249031F300730808002000A700FD1F91
:10215000AA28AB28AD28FC01FD01A501A601BF28D6
:102160002030F0000030F10020002708F200883114
:102170000020903101302000A5070030A63D260840
:10218000803AA4007D08803A2402031DC9287C08F7
:102190002502031CCC28CD28B02820002708F800F1
:1021A0007B089F319027903108000430F1009C316A
:1021B00049249031003A0319DE28DF281129220032
:1021C000500851040319E528E628FE289C312724ED
:1021D0009031F0000730473E860001308700403FD5
:1021E0008400413F85007008800001302200CE0746
:1021F0000030CF3D0130D0020030D13B50085104B7
:1022000003190329042908299C31452490311429F4
:102210009C312D2490319C314D2490310730F100B8
:1022200014299C312A249031710808009C31212402
:1022300091319C31A9249131003A03192029212997
:102240002F299C3183249131003A03192829292907
:102250002F2905302200D4000130D30044299C31BD
:1022600066249131003A03193629372944299C31D3
:1022700083249131003A03193E293F29442905302E
:102280002200D4000230D30022005408F400F501EB
:10229000F435F50D6030740784001830753D8038D2
:1022A0008500013F8A00003F0A0091312200D400DE
:1022B00008002300C100C2010130BE00420A6129AA
:1022C000BE35890B60293E084105BF00420A6929D5
:1022D000BF36890B68293F08C000C00E22000D08D8
:1022E00023004006EF39400622008D00C83000323E
:1022F000890B772922000D17C8300032890B7D2900
:1023000022000D160D13C8300032890B84290130CC
:102310002300BE003E08C20708304202031C912978
:1023200092295C2922008D16C8300032890B95292C
:1023300022008D12C8300032890B9B290800003022
:102340007005F80000307105F90080307205FA0060
:102350007F307305FB007B087A0479047804031D41
:10236000B229B329BB290030F3000030F20000305D
:10237000F1000030F00000307405F8000030750501
:10238000F90080307605FA007F307705FB007B0886
:102390007A0479047804031DCE29CF29D729003087
:1023A000F7000030F6000030F5000030F400770848
:1023B0007306031DE52976087206031DE5297508D5
:1023C0007106031DE529740870060319E829E92937
:1023D000EB290310EC290314080022008C018D0165
:1023E00018308E00193021008C0080308D009B3019
:1023F0008E00153023008C008D0101308E003A30A4
:1024000024008C00F0308D00DF308E002100951309
:1024100025008C018D018E01363026008C00F030B5
:102420008D00FF308E00183027008C00F0308D00BA
:1024300007308E0017303C00A40012303D00A6008B
:1024400014303C00A00010303D00A40013303C00CC
:10245000A10011303D00A30002303C0095000D307A
:102460003D00920015303C0094000C303D00A5006A
:102470002700910192019301940195019601970122
:102480009801990108002000A300A101A2012308DE
:1024900086008701403FF800413FF900780884003A
:1024A0007908850012002A3A031D572A582A8B2AD8
:1024B0002308860087010130810741310318810A12
:1024C000760886000130870001088400850102300B
:1024D0008107003FA100013FA2009F2A2008F800C9
:1024E000F9012208F1002108F0000A30F200003062
:1024F000F3009E31CB269231780870072000A100AE
:102500007908713DA2002308860087010130810708
:1025100041310318810A230886008701403FF800F3
:10252000413FF90078088400790885000008D03E12
:10253000A0000A302002031C9E2A9F2A6E2A22082D
:10254000F7002108F60008000310720D730DF90062
:102550007908031DAC2AAD2AB62A0030F3000030FA
:10256000F2000030F1000030F000132B7008F4008E
:102570007108F5007208F6007308F7001F30F7368F
:10258000F60CF50CF40C890BBF2A7408F800F2174E
:10259000FF30F005FF30F105FF30F2050030F305A4
:1025A0009630F902F91FD52AD62AEE2A7908803A00
:1025B000973E0318DC2ADD2ADE2AAD2A0130F336E5
:1025C000F20CF10CF00C890BDF2A0130F4007408D6
:1025D000F907031DEC2AED2ADE2A032B20307902AD
:1025E000031CF32AF42AFE2AAD2A0130F035F10D3E
:1025F000F20DF30D890BF62A0130F9027908031D5B
:10260000022B032BF52A78080319072B082B132B11
:10261000F009F109F209F309F00A0319F10A0319A3
:10262000F20A0319F30A08002000901222006A0837
:10263000C000C101C035C10D7030C2002330C300DD
:102640004008420786004108433D87000030C03FF4
:10265000C13F23009D1C2D2B2E2B4A2B22006A08E4
:10266000C000C101C035C10D7030C2002330C300AD
:102670004008420786004108433D8700011559087C
:102680005A040319442B452B4A2B5A088A0059082F
:102690000A00933123001D1D4E2B4F2B6B2B220064
:1026A0006A08C000C101C035C10D7030C2002330BE
:1026B000C3004008420786004108433D870081145B
:1026C0005B085C040319652B662B6B2B5C088A0086
:1026D0005B080A009331230019082200C4006A082D
:1026E000013E3F39C50045086906031D782B792B4B
:1026F0007A2B872B6A08A03E8600023087004408A8
:1027000081004508EA000130C0004008E80744089D
:102710008731942793310800230027082000A50063
:10272000230026082000A400230025082000A30081
:10273000230024082000A2007308A5007208A4004A
:102740007108A3007008A2002208F4002308F50015
:102750002408F6002508F7001730F736F60CF50CBC
:10276000F40C890BAD2BFF307405A000003075050B
:10277000A10020082104031DBE2BBF2BE02B220843
:10278000F4002308F5002408F6002508F7000130BE
:10279000F435F50DF60DF70D890BC82B7708760487
:1027A00075047404031DD52BD62BDB2B0230F000EF
:1027B0000030F1000A2C0330F0000030F1000A2C48
:1027C000200A2104031DE52BE62B062C2208F40029
:1027D0002308F5002408F6002508F7000930F43531
:1027E000F50DF60DF70D890BEF2B770876047504C0
:1027F00074040319FC2BFE2B0130FF2B0030F80072
:10280000F9017808F0007908F1000A2C0430F00092
:102810000030F10008002000AD002200D81F112C6C
:10282000122C182C01302000AE000030AF001F2CFD
:1028300058082000AF00220057082000AE002200F8
:1028400056082000AC00220055082000AB004F3095
:10285000B1000030B2002400EF015D2CFF302000F9
:10286000B107FF30B23D28080F39B0000A303002FE
:1028700003183B2C3C2C412C3030AA002A08B0070E
:10288000452C5730AA002A08B0073108203E8600A0
:102890000230870030088100FF30AE07FF30AF3DC7
:1028A000FF30AB07FF30AC3D280E0F39A800290ED2
:1028B000F039A804290E0F39A90020003208803A07
:1028C000AA0080302A02031D672C02303102031C4B
:1028D0006A2C6B2C7F2C200028082904031D712CE6
:1028E000722C2E2C2F08803AAA0080302A02031D59
:1028F0007B2C01302E0203187E2C7F2C2E2C2000E6
:102900003108203EFB002C08FD002B08FC002D08A0
:102910009031A52094310800003020004005C80007
:1029200000304105C90080304205CA007F304305B0
:10293000CB004B084A0449044804031DA02CA12CD9
:10294000A92C0030C3000030C2000030C1000030AC
:10295000C00000304405C80000304505C900803083
:102960004605CA007F304705CB004B084A0449049E
:102970004804031DBC2CBD2CC52C0030C700003002
:10298000C6000030C5000030C400C31FC82CC92CCD
:10299000E12C0030C8000030C9000030CA0080308F
:1029A000CB004008C8024108C93B4208CA3B430863
:1029B000CB3B4B08C3004A08C2004908C100480885
:1029C000C000C71FE42CE52CFD2C0030C8000030EF
:1029D000C9000030CA008030CB004408C802450856
:1029E000C93B4608CA3B4708CB3B4B08C7004A08CF
:1029F000C6004908C5004808C4008030C3068030BE
:102A0000C70647084302031D0F2D46084202031D57
:102A10000F2D45084102031D0F2D440840020318E5
:102A2000122D132D152D0310162D03140800200050
:102A3000A000200803191D2D1E2D322DF71F212D5A
:102A4000222D322D7409A2007509A3007609A40075
:102A50007709A500A20A0319A30A0319A40A0319F6
:102A6000A50A3A2D7708A5007608A4007508A300EA
:102A70007408A2007708760475047404031D412DC0
:102A8000422D4B2D0030F7000030F6000030F500ED
:102A90000030F400C12D9630A100592D0130F8000E
:102AA0007808A1070130A536A40CA30CA20C890B51
:102AB000532DFE302505031D5E2D5F2D4E2D732DEC
:102AC0000130F8007808A1070130A2070030A33DCB
:102AD0000030A43D0030A53D0130A536A40CA30C68
:102AE000A20C890B6D2DFF302505031D782D792D46
:102AF000602D832D0130A1020130A235A30DA40D5C
:102B0000A50D890B7D2DA41B862D872D8D2D0230C3
:102B1000210203188C2D8D2D7A2D2118902D912DA9
:102B2000992DFF30A205FF30A3057F30A405FF30AB
:102B3000A5050310A10C2108F800F901FA01FB0119
:102B40001830F835F90DFA0DFB0D890BA12D780819
:102B5000A2047908A3047A08A4047B08A504200829
:102B60000319B32DB42DB92DF71FB72DB82DB92DDD
:102B7000A5172508F7002408F6002308F500220809
:102B8000F40008009F31B527953121009011911173
:102B90008B170B178B1222000D128D120D13F430B0
:102BA0002300BE000130BF009E314526953196308E
:102BB000913159219531BC302300BE000230BF0055
:102BC0009E314526953104302300C4008E30C30069
:102BD0001230890BE92DC30BE92DC40BE92D000040
:102BE0006930913159219531BC302300BE0002304B
:102BF000BF009E314526953104302300C4008E303D
:102C0000C3001230890B022EC30B022EC40B022EFE
:102C100000009930913159219531BC302300BE001C
:102C20000230BF009E314526953104302300C40098
:102C30008E30C3001230890B1B2EC30B1B2EC40B0E
:102C40001B2E00006630913159219531BC30230094
:102C5000BE000230BF009E3145269531043023006E
:102C6000C4008E30C3001230890B342EC30B342EB7
:102C7000C40B342E00005530913159219531BC30B0
:102C80002300BE000230BF009E314526953104303E
:102C90002300C4008E30C3001230890B4D2EC30BAD
:102CA0004D2EC40B4D2E0000AA3091315921953183
:102CB000BC302300BE000230BF009E314526953156
:102CC00004302300C4008E30C3001230890B662EFE
:102CD000C30B662EC40B662E0000D72D8031412811
:102CE0002100DE0020006E0886008701403F2100A1
:102CF000D600413FD70056088400570885001200CF
:102D0000253A031D842E852EE52F20006E088600AF
:102D100087010130810741310318810A2200D50162
:102D2000D6010310003003180130E500FF30D70052
:102D3000FF30D80020006E0886008701403F210048
:102D4000D600413FD700560884005708850012007E
:102D50002E3A031DAC2EAD2EC12E20006E0886002B
:102D600087010130810741310318810A6F08F6009D
:102D70006E0892314322963177082200D8007608F7
:102D8000D70020006E0886008701403F2100E00048
:102D9000413FE10060088400610885000008DF0011
:102DA000EB2E0130E0070030E13D6008840061084F
:102DB00085001200683A031DDE2EDF2EF32E483008
:102DC000DF000130E0070030E13DF32E6930DF0025
:102DD000F32EDF01F32E5F08683A0319D12E103A63
:102DE0000319E62EE92E60088400610885001200B0
:102DF000783A031DFC2EFD2E4F2F212F20006F0847
:102E000086000130870001088400850102308107B7
:102E1000003F2100DA00013FDB00292F20006F086E
:102E20008600013087000108840085010230810797
:102E300000082100D600D7015608DA005708DB0049
:102E4000292F5F08483A03190E2F213A0319FE2E45
:102E5000292F6008013ED6000030613DD7002000D8
:102E60006E088600870121005608C03F5708C13F01
:102E7000462F5B082000A90021005A082000A80066
:102E800021005E0894310B249631FF2F60088400E6
:102E9000610885000008783A0319392F4F2F200068
:102EA0006E0886008701403F2100E000413FE100BD
:102EB00060088400610885000008DF00692F013088
:102EC000E0070030E13D742F6C30DF00742FDF012C
:102ED000742F5F084C3A03195F2F2A3A0319642FA5
:102EE0000A3A03195F2F672F600884006108850084
:102EF0001200663A031D7D2F7E2FDB2FA72F2000A7
:102F00006F088600013087000108840085010430C5
:102F10008107003F2100DA00013FDB00023FDC00B7
:102F2000033FDD00AF2F20006F08860001308700CF
:102F300001088400850104308107003F2100DA0088
:102F4000013FDB00023FDC00033FDD00AF2F5F08E5
:102F50004C3A0319932F203A03197F2FAF2F6008A3
:102F6000013ED6000030613DD70020006E0886008B
:102F7000870121005608C03F5708C13FD22F5D0886
:102F8000A3005C08A2005B08A1005A08A00060082A
:102F90008400610885000008A4005E088031832059
:102FA0009631FF2F60088400610885000008663AAA
:102FB0000319BF2FDB2F20006E0886008701013028
:102FC000810741310318810AFF2F20006E08860017
:102FD0008701403F2100D600413FD70056088400BA
:102FE000570885000008D800D9015808F000590892
:102FF000F1005E08F200883100209631DB2F0800D6
:1030000049341034003400340034003400340034C7
:103010000034003400340034003400340034003410
:103020000034003400340034003400340034003400
:1030300000340034003400340034003400340034F0
:10304000003400340034003417341D3400340034AC
:1030500047341D3456341D340034003400340034F9
:103060009C341D3400340034003400340034003407
:103070008F341C3400340034533465346E3474346B
:10308000203463346F34643465343A342034253466
:10309000683468347834003488341D3400340034A3
:1030A0000034003400340034003400340034003480
:1030B000003400340034003423341D340034003430
:1030C00051341C34B8341C349B341C3476341034E2
:1030D000D534103477341C347D341C34C0341C3463
:1030E000A2341C3444346934733474342E343A3486
:1030F000203425342E3432346634203463346D3435
:103100000034543465346D3470342E343A34203401
:1031100025342E34323466342034433400342034A1
:103120002E342E34203449346E3474346534723481
:10313000723475347034743400344F3475347434EC
:1031400020346F3466342034523461346E34673442
:103150006534003404341E34003400340034003448
:103160000034003495341C340034003493341E345D
:1031700033341C3436341C340034003489341C3469
:10318000003400342F341E34003400340034003452
:1031900000340034E2341C3400340034203454341D
:1031A0004D345234303420342E342E340034203414
:1031B000553441345234543420342E342E340034B7
:1031C00069346E34663400346E3461346E340034E5
:103832000800080008000800080020009111080094
:103842002000901108002400161508002400110819
:103852000800240096150800240096100800240091
:103862009614080020001814080020001810080000
:1038720023001D121D16080024009512951608003B
:10388200240095131513080024009612161608003A
:1038920024001408013908002400961616160800A0
:1038A2002200C701083008009F316D279C310800B3
:1038B200913116219C3108008A3101229C31080085
:1038C200F00070082400910008002400140E890CF6
:1038D200013908009D310B259C3124001614080083
:1038E2009D310B259C312400161508009C31C02403
:1038F2009C31F000700808009C31A2249C31F00039
:10390200700808002400160E890C890C0139080081
:1039120023003F08B5003E08B400080023003F081A
:10392200B9003E08B800080023003F08B3003E0873
:10393200B2000800220048359C3161249C310330DA
:1039420008009C313D249C312200C7010030080050
:1039520003102400941E03140030093D08000830AF
:103962002200EC0000309D3175259C3108000314C3
:103972002200480D9C3161249C31043008009C31A6
:1039820024249C319D31EF259C31003008006A309F
:1039920021009900220096012100980108000130BF
:1039A2009D31C5259C310D30890BD52C00000800B6
:1039B20023003F082200E40023003E082200E30027
:1039C200080023003F082200E20023003E082200F4
:1039D200E10008008F302500930001309200FF3093
:1039E2009100FC309E050800730872047104700493
:1039F2000319FC2CFD2CFF2C8030F30608009030BC
:103A020021009E009B019C019F0101309D0020002E
:103A120010130800240014190F2D102D0B2D160859
:103A22001F39031D152D162D0B2D080023003E08EE
:103A32003F0403191D2D1E2D222D3F08BB003E08F9
:103A4200BA00080023003E083F040319292D2A2D3D
:103A52002E2D3F08BD003E08BC0008008B1021003F
:103A6200151700302300BE000030BF009C31D9245E
:103A72009D3108006400800101310130FE020030F6
:103A8200FF3B7F087E04031D3C2D003423003E08CB
:103A92003F0403194D2D4E2D552D3F082200DC0009
:103AA20023003E082200DB00080023003E083F04FA
:103AB20003195C2D5D2D642D3F082200DA002300DE
:103AC2003E082200D9000800F0009D310B259D31EF
:103AD2007008240091002000901D702D712D6C2D16
:103AE2009011240016080800F1009C316B249D31CE
:103AF200220066089D3165259D31710822006C0403
:103B02009D3165259D319C3171249D3108008030A5
:103B12002400940008309500960197010930920024
:103B22001B302300BE001C30BF009D3123259D3178
:103B320024009516080020009E019D019F01FF3080
:103B42009B009A011C302300BE001C30BF009C3138
:103B52008F249D3120009010F0309C000800F3006B
:103B620022006708F2007208F304730804389D31DA
:103B720075259D317308FB399D3175259D311030B6
:103B8200890BC12D00320800F5002200E7017508FB
:103B9200F0399D31B0259D317508F4000330F435BC
:103BA200FF3E031DD02D7435F0399D31B0259D3176
:103BB2000800F31BDD2DDE2DDF2DEE2D7009F00048
:103BC2007109F1007209F2007309F300F00A031996
:103BD200F10A0319F20A0319F30A08002200C701C5
:103BE2000030C900FF30C800CA01CB01CE01CF01AD
:103BF200D4019C3121249D319C311E249D319C3164
:103C020041249D31080028009701960198019C30BB
:103C12009400930102302300BE000030BF009C31AB
:103C220095249E3120009110F03028009500080064
:103C3200F5002200E701E70A7508F0399D31B02549
:103C42009E317508F4000330F435FF3E031D252E26
:103C52007435F0399D31B0259E31080021001508D8
:103C6200C039173895003D30200095003D302200C4
:103C7200EB005D302300BE001C30BF009C31E2240B
:103C82009E310B118B160800FF302300BE05033056
:103C9200BF0525001A1E4E2E4F2E552E063023002C
:103CA200BE35BF0D890B512E23003F082500990018
:103CB20023003E08250098000800F3007308F20074
:103CC200F20DF20D21001D087206833972069D0065
:103CD2001D1400320032000021009D149D18722E26
:103CE200732E6F2E1C08F1001B08F0000800F5006F
:103CF2007508F4007408860002308700F40A71081F
:103D0200F3007008F200F00A0319F10A7208840045
:103D1200730885000008C03F8908031D912E922E6A
:103D22007B2E080020009901FF309700FF3096009B
:103D320017082200DE00200016082200DD001D30D8
:103D42002300BE001C30BF009C3189249E3120001C
:103D520010109013013098000800F901FA01BF2EEB
:103D620076087907840077087A3D850000089E313D
:103D720019269E310130F9070030FA3D760879079D
:103D8200840077087A3D85001200031DC92ECA2ED1
:103D9200B12E0800F401F501701CD02ED12ED52EC3
:103DA2007208F4077308F53D0130F235F30D890B03
:103DB200D62E0130F136F00C890BDB2E700871041F
:103DC200031DE42EE52ECD2E7508F1007408F000D7
:103DD200080080302000C3064708F3004608F200BE
:103DE2004508F1004408F0004308F7004208F600D5
:103DF2004108F5004008F4008B31B9239E31730865
:103E02002000C3007208C2007108C1007008C0001F
:103E120008002100E6006308E8006208E7001D2FA1
:103E2200E7302000EE00210064082000EF002100AE
:103E32006608963170269F31210067088400680861
:103E420085001200031D262F272F112FE201E30107
:103E520008002200A000EB30A1002008A200A4016B
:103E6200A501AB01AC0121006A08E3006908E20088
:103E72002130E40022309F310A279F31220024089A
:103E820020072100EF006F088600013087008101C2
:103E92000800F800F401F5017008F200F30172085D
:103EA200F6007308F700781C572F582F5C2F7608FE
:103EB200F4077708F53D0130F635F70D890B5D2FD4
:103EC2000310F80C7808031D672F682F542F75080C
:103ED200F1007408F000080006302200D40003301C
:103EE200D3009C311E249F3122005408F400F501B6
:103EF200F435F50D6030740784001830753D803854
:103F02008500013F8A00003F0A009F312200D40051
:103F120023003D088A003C080A009F310800200067
:103F2200A300A101A201A62F2008F900FA01790835
:103F3200F0007A08F1007808F200883100209F3101
:103F420001302000A1070030A23D21082307F9001B
:103F520079088600023087000108A0002008031DAE
:103F6200B32FB42F952F08009C31C8249F31913173
:103F7200ED219F319D3100259F31903149209F31A4
:103F82009D3188259F319C31EB249F318731F52764
:103F92009F319E312F269F319E3193269F319D3135
:103FA2009C259F319E3104269F319D312F259F31C3
:103FB2000800F700F42F7608BF3E9D31C5259F31DA
:103FC200FF2F7608933E9D31C5259F31FF2F76083E
:103FD200D33E9D31C5259F31FF2F76087F3E9D310F
:103FE200C5259F31FF2F7708023A0319DC2F013ACA
:0E3FF2000319E22F073A0319E82FEE2F0800FB
:020000040001F9
:06000E007C3FFF3E9F3F16
:00000001FF
